:020000040800F2
:10000000D81A002001010008090100080B010008AE
:100010000D0100080F010008110100080000000098
:1000200000000000000000000000000013010008B4
:10003000150100080000000073010008B115000858
:100040001B0100081B0100081B0100081B01000820
:100050001B0100081B0100081B0100081B01000810
:100060001B0100081B0100081B0100081B01000800
:100070001B0100081B0100081B0100081B010008F0
:100080001B0100081B0100081B0100081B010008E0
:100090001B0100081B0100081B0100081B010008D0
:1000A0001B0100081B0100081B0100081B010008C0
:1000B0002116000855160008911600081B010008BB
:1000C0001B0100081B0100081B0100081B010008A0
:1000D0001B010008CD160008291700088517000825
:1000E0001B0100081B0100081B010008DFF80CD0F1
:1000F00000F072F80048004741190008D81A0020A3
:100100000648804706480047FEE7FEE7FEE7FEE7B1
:10011000FEE7FEE7FEE7FEE7FEE7FEE7C1150008A3
:10012000ED000008EFF3108072B6704780F310887E
:100130007047204C204D25604FF0000484F309885F
:100140001E4C4FF0010525701D4C4FF08055256069
:1001500062B6FEE730B41A4C4FF08055256030BCD3
:10016000704730B4164C4FF08055256030BC704756
:1001700000BF72B6EFF3098028B1203880E8F00F95
:1001800010490968086000B50F4880475DF804EB26
:100190000E480F490A7802700A480E490A68026040
:1001A000106890E8F00F203080F309884EF0040EBC
:1001B00062B6704720ED00E00000FFFF360000202F
:1001C00004ED00E03C000020A91300082B000020F3
:1001D0002C00002044000020064C074D06E0E0689B
:1001E00040F0010394E8070098471034AC42F6D37E
:1001F000FFF780FF109100083091000810B5002132
:100200000BE0002206E0002300E05B1CB3F5477F13
:10021000FBDD521C0A2AF6DB491C8142F1DB10BDD2
:1002200030B505460021084601F01EF82C2001F0EB
:100230005DF8002403E0284601F052F8641CB4F590
:10024000163FF8D330BD000010B5FE48406940F4B9
:100250008070FC4948610846806940F00800886168
:100260000846806940F0200088610846806940F0B7
:1002700040008861F448006820F00F00F2490860EF
:100280000846006840F003000860F0480068F04944
:100290000840EE49086008460068EE490843EB490B
:1002A0000860ED48006820F47020EB4908600846BB
:1002B000006840F430200860E448006820F0FF0047
:1002C000E24908600846006840F0BB000860081D6D
:1002D0000068E2490840DD49091D086008460068D9
:1002E000DF490843D949091D0860DB48006820F050
:1002F0007040D94908600846006840F03040086006
:10030000081D00680020091D08600846006840F0CC
:10031000BB30086000204FF020410860486008466C
:10032000006840F4805008600846006840F0100003
:1003300008600846406840F48070486008460068DD
:1003400040F0010008607820FFF758FFED2000F032
:10035000CDFF012000F0C4FFFE2000F0C1FFEE2021
:1003600000F0C4FFDE2000F0BBFF212000F0B8FF4A
:10037000F12000F0BBFF012000F0B2FFDF2000F011
:10038000B5FF102000F0ACFFC42000F0AFFF8F20BD
:1003900000F0A6FFC62000F0A9FF002000F0A0FF9B
:1003A000E22000F09DFFE22000F09AFFE22000F042
:1003B00097FFBF2000F09AFFAA2000F091FFB02025
:1003C00000F094FF0D2000F08BFF002000F088FF6C
:1003D0000D2000F085FF002000F082FF112000F0CA
:1003E0007FFF002000F07CFF192000F079FF002043
:1003F00000F076FF212000F073FF002000F070FF76
:100400002D2000F06DFF002000F06AFF3D2000F07D
:1004100067FF002000F064FF5D2000F061FF002016
:1004200000F05EFF5D2000F05BFF002000F058FF51
:10043000B12000F05BFF802000F052FF002000F0B0
:100440004FFF8B2000F04CFF002000F049FF96206A
:1004500000F046FF002000F043FFB22000F046FF0E
:10046000002000F03DFF002000F03AFF022000F0E5
:1004700037FF002000F034FF032000F031FF0020A0
:1004800000F02EFFB32000F031FF002000F028FF25
:10049000002000F025FF002000F022FF002000F0E7
:1004A0001FFF002000F01CFF002000F019FF0020BB
:1004B00000F016FF002000F013FF002000F010FFF6
:1004C000002000F00DFF002000F00AFF002000F0E7
:1004D00007FF002000F004FF002000F001FF0020D3
:1004E00000F0FEFE002000F0FBFE002000F0F8FE11
:1004F000002000F0F5FE002000F0F2FE002000F0E9
:10050000EFFE002000F0ECFE002000F0E9FE0020ED
:1005100000F0E6FE002000F0E3FEB42000F0E6FE6E
:100520008B2000F0DDFE002000F0DAFE962000F0C7
:10053000D7FE002000F0D4FEA12000F0D1FE002064
:1005400000F0CEFEB52000F0D1FE022000F0C8FE83
:10055000002000F0C5FE032000F0C2FE002000F0E5
:10056000BFFE042000F0BCFE002000F0B9FEB62063
:1005700000F0BCFE002000F0B3FE002000F0B0FE52
:10058000B72000F0B3FE002000F0AAFE002000F02B
:10059000A7FE3F2000F0A4FE002000F0A1FE5E2098
:1005A00000F09EFE002000F09BFE642000F098FE0C
:1005B000002000F095FE8C2000F092FE002000F05C
:1005C0008FFEAC2000F08CFE002000F089FEDC20C5
:1005D00000F086FE002000F083FE702000F080FE18
:1005E000002000F07DFE902000F07AFE002000F058
:1005F00077FEEB2000F074FE002000F071FEDC209E
:1006000000F06EFE002000F06BFEB82000F06EFEE1
:10061000002000F065FE002000F062FE002000F0E7
:100620005FFE002000F05CFE002000F059FE00207C
:1006300000F056FE002000F053FE002000F050FEB7
:10064000BA200FE000100240000C014000140140ED
:10065000FFFF000F0000BBB00018014000F0FF00DA
:10066000BB0B00BB00F042FE242000F039FE00204E
:1006700000F036FE002000F033FE002000F030FED7
:10068000C12000F033FE202000F02AFE002000F000
:1006900027FE542000F024FE002000F021FEFF2061
:1006A00000F01EFE002000F01BFEC22000F01EFE27
:1006B0000A2000F015FE002000F012FE042000F0D9
:1006C0000FFE002000F00CFEC32000F00FFE3C20C7
:1006D00000F006FE002000F003FE3A2000F000FECD
:1006E000002000F0FDFD392000F0FAFD002000F0B0
:1006F000F7FD372000F0F4FD002000F0F1FD3C2074
:1007000000F0EEFD002000F0EBFD362000F0E8FDEB
:10071000002000F0E5FD322000F0E2FD002000F0B6
:10072000DFFD2F2000F0DCFD002000F0D9FD2C20A3
:1007300000F0D6FD002000F0D3FD292000F0D0FD10
:10074000002000F0CDFD262000F0CAFD002000F0C2
:10075000C7FD242000F0C4FD002000F0C1FD2420CE
:1007600000F0BEFD002000F0BBFD232000F0B8FD2E
:10077000002000F0B5FD3C2000F0B2FD002000F0AC
:10078000AFFD362000F0ACFD002000F0A9FD3220C6
:1007900000F0A6FD002000F0A3FD2F2000F0A0FD3A
:1007A000002000F09DFD2C2000F09AFD002000F0BC
:1007B00097FD292000F094FD002000F091FD2620F7
:1007C00000F08EFD002000F08BFD242000F088FD5D
:1007D000002000F085FD242000F082FD002000F0C4
:1007E0007FFD232000F07CFD002000F079FDC42077
:1007F00000F07CFD622000F073FD002000F070FD31
:10080000052000F06DFD002000F06AFD842000F05E
:1008100067FD002000F064FDF02000F061FD002085
:1008200000F05EFD182000F05BFD002000F058FD98
:10083000A42000F055FD002000F052FD182000F02B
:100840004FFD002000F04CFD502000F049FD00203D
:1008500000F046FD0C2000F043FD002000F040FDBC
:10086000172000F03DFD002000F03AFD952000F03B
:1008700037FD002000F034FDF32000F031FD0020B2
:1008800000F02EFDE62000F02BFD002000F028FDFA
:10089000C52000F02BFD322000F022FD002000F0EA
:1008A0001FFD442000F01CFD002000F019FD652014
:1008B00000F016FD002000F013FD762000F010FD82
:1008C000002000F00DFD882000F00AFD002000F05F
:1008D00007FDC62000F00AFD202000F001FD0020E9
:1008E00000F0FEFC172000F0FBFC002000F0F8FCFC
:1008F000012000F0F5FC002000F0F2FCC72000F021
:10090000F5FC002000F0ECFC002000F0E9FC0020E9
:1009100000F0E6FC002000F0E3FCC82000F0E6FC5C
:10092000002000F0DDFC002000F0DAFC002000F0E8
:10093000D7FC002000F0D4FCC92000F0D7FC002038
:1009400000F0CEFC002000F0CBFC002000F0C8FC42
:10095000002000F0C5FC002000F0C2FC002000F0E8
:10096000BFFC002000F0BCFC002000F0B9FC00201F
:1009700000F0B6FC002000F0B3FC002000F0B0FC5A
:10098000002000F0ADFC002000F0AAFC002000F0E8
:10099000A7FC002000F0A4FC002000F0A1FCE02057
:1009A00000F0A4FC162000F09BFC002000F098FC56
:1009B0001C2000F095FC002000F092FC212000F0AB
:1009C0008FFC002000F08CFC362000F089FC002019
:1009D00000F086FC462000F083FC002000F080FC44
:1009E000522000F07DFC002000F07AFC642000F032
:1009F00077FC002000F074FC7A2000F071FC0020ED
:100A000000F06EFC8B2000F06BFC002000F068FC16
:100A1000992000F065FC002000F062FCA82000F0A6
:100A20005FFC002000F05CFCB92000F059FC0020C5
:100A300000F056FCC42000F053FC002000F050FCF5
:100A4000CA2000F04DFC002000F04AFCD22000F04B
:100A500047FC002000F044FCD92000F041FC0020BD
:100A600000F03EFCE02000F03BFC002000F038FCF1
:100A7000F32000F035FC002000F032FCE12000F013
:100A800035FC162000F02CFC002000F029FC1C2076
:100A900000F026FC002000F023FC222000F020FCC7
:100AA000002000F01DFC362000F01AFC002000F0B1
:100AB00017FC452000F014FC002000F011FC52202F
:100AC00000F00EFC002000F00BFC642000F008FC9D
:100AD000002000F005FC7A2000F002FC002000F06D
:100AE000FFFB8B2000F0FCFB002000F0F9FB9920BD
:100AF00000F0F6FB002000F0F3FBA82000F0F0FB74
:100B0000002000F0EDFBB92000F0EAFB002000F02F
:100B1000E7FBC42000F0E4FB002000F0E1FBCA206A
:100B200000F0DEFB002000F0DBFBD22000F0D8FB61
:100B3000002000F0D5FBD82000F0D2FB002000F010
:100B4000CFFBE02000F0CCFB002000F0C9FBF3203D
:100B500000F0C6FB002000F0C3FBE22000F0C6FB63
:100B6000052000F0BDFB002000F0BAFB0B2000F0D8
:100B7000B7FB002000F0B4FB1B2000F0B1FB00200D
:100B800000F0AEFB342000F0ABFB002000F0A8FB2F
:100B9000442000F0A5FB002000F0A2FB4F2000F055
:100BA0009FFB002000F09CFB612000F099FB0020DF
:100BB00000F096FB792000F093FB002000F090FB02
:100BC000882000F08DFB002000F08AFB972000F0C9
:100BD00087FB002000F084FBA62000F081FB0020B2
:100BE00000F07EFBB72000F07BFB002000F078FBDC
:100BF000C22000F075FB002000F072FBC72000F05F
:100C00006FFB002000F06CFBD12000F069FB00209E
:100C100000F066FBD62000F063FB002000F060FBD4
:100C2000DD2000F05DFB002000F05AFBF32000F017
:100C300057FB002000F054FBE32000F057FB052099
:100C400000F04EFB002000F04BFB0A2000F048FBB8
:100C5000002000F045FB1C2000F042FB002000F0CB
:100C60003FFB332000F03CFB002000F039FB442028
:100C700000F036FB002000F033FB502000F030FB8A
:100C8000002000F02DFB622000F02AFB002000F085
:100C900027FB782000F024FB002000F021FB8820B7
:100CA00000F01EFB002000F01BFB972000F018FB5B
:100CB000002000F015FBA62000F012FB002000F041
:100CC0000FFBB72000F00CFB002000F009FBC22056
:100CD00000F006FB002000F003FBC72000F000FB43
:100CE000002000F0FDFAD12000F0FAFA002000F018
:100CF000F7FAD52000F0F4FA002000F0F1FADD2038
:100D000000F0EEFA002000F0EBFAF32000F0E8FA31
:100D1000002000F0E5FAE42000F0E8FA012000F0FD
:100D2000DFFA002000F0DCFA012000F0D9FA002000
:100D300000F0D6FA022000F0D3FA002000F0D0FA3A
:100D40002A2000F0CDFA002000F0CAFA3C2000F082
:100D5000C7FA002000F0C4FA4B2000F0C1FA0020CE
:100D600000F0BEFA5D2000F0BBFA002000F0B8FAF7
:100D7000742000F0B5FA002000F0B2FA842000F0F0
:100D8000AFFA002000F0ACFA932000F0A9FA00209E
:100D900000F0A6FAA22000F0A3FA002000F0A0FACA
:100DA000B32000F09DFA002000F09AFABE2000F077
:100DB00097FA002000F094FAC42000F091FA002085
:100DC00000F08EFACD2000F08BFA002000F088FAB7
:100DD000D32000F085FA002000F082FADD2000F038
:100DE0007FFA002000F07CFAF32000F079FA00206E
:100DF00000F076FAE52000F079FA002000F070FAB1
:100E0000002000F06DFA002000F06AFA002000F0E7
:100E100067FA022000F064FA002000F061FA29204D
:100E200000F05EFA002000F05BFA3C2000F058FA77
:100E3000002000F055FA4B2000F052FA002000F09C
:100E40004FFA5D2000F04CFA002000F049FA7420BF
:100E500000F046FA002000F043FA842000F040FA47
:100E6000002000F03DFA932000F03AFA002000F054
:100E700037FAA22000F034FA002000F031FAB32053
:100E800000F02EFA002000F02BFABE2000F028FA25
:100E9000002000F025FAC42000F022FA002000F023
:100EA0001FFACD2000F01CFA002000F019FAD32020
:100EB00000F016FA002000F013FADC2000F010FA1F
:100EC000002000F00DFAF32000F00AFA002000F0F4
:100ED00007FAE62000F00AFA112000F001FA0020DB
:100EE00000F0FEF9342000F0FBF9002000F0F8F9E2
:100EF000562000F0F5F9002000F0F2F9762000F01D
:100F0000EFF9002000F0ECF9772000F0E9F900207B
:100F100000F0E6F9662000F0E3F9002000F0E0F9C7
:100F2000882000F0DDF9002000F0DAF9992000F0C7
:100F3000D7F9002000F0D4F9BB2000F0D1F900204F
:100F400000F0CEF9992000F0CBF9002000F0C8F9AC
:100F5000662000F0C5F9002000F0C2F9552000F02D
:100F6000BFF9002000F0BCF9552000F0B9F90020CD
:100F700000F0B6F9452000F0B3F9002000F0B0F918
:100F8000432000F0ADF9002000F0AAF9442000F061
:100F9000A7F9002000F0A4F9E72000F0A7F932201B
:100FA00000F09EF9002000F09BF9552000F098F920
:100FB000002000F095F9762000F092F9002000F072
:100FC0008FF9662000F08CF9002000F089F9672085
:100FD00000F086F9002000F083F9672000F080F926
:100FE000002000F07DF9872000F07AF9002000F061
:100FF00077F9992000F074F9002000F071F9BB2016
:1010000000F06EF9002000F06BF9992000F068F90B
:10101000002000F065F9772000F062F9002000F070
:101020005FF9442000F05CF9002000F059F95620E7
:1010300000F056F9002000F053F9232000F050F999
:10104000002000F04DF9332000F04AF9002000F0B4
:1010500047F9452000F044F9002000F041F9E8206C
:1010600000F044F9002000F03BF9002000F038F9CE
:10107000992000F035F9002000F032F9872000F0C7
:101080002FF9002000F02CF9882000F029F9002029
:1010900000F026F9772000F023F9002000F020F975
:1010A000662000F01DF9002000F01AF9882000F0F9
:1010B00017F9002000F014F9AA2000F011F900201F
:1010C00000F00EF9BB2000F00BF9002000F008F949
:1010D000992000F005F9002000F002F9662000F0E8
:1010E000FFF8002000F0FCF8552000F0F9F800208F
:1010F00000F0F6F8552000F0F3F8002000F0F0F8CA
:10110000442000F0EDF8002000F0EAF8442000F060
:10111000E7F8002000F0E4F8552000F0E1F80020A6
:1011200000F0DEF8E92000F0E1F8AA2000F0D8F89D
:10113000002000F0D5F8002000F0D2F8002000F0E8
:10114000CFF8002000F0D2F8AA2000F0C9F8CF2094
:1011500000F0CCF8002000F0C3F8002000F0C0F848
:10116000002000F0BDF8002000F0BAF8002000F0E8
:10117000B7F8002000F0B4F8002000F0B1F800202B
:1011800000F0AEF8002000F0ABF8002000F0A8F866
:10119000002000F0A5F8002000F0A2F8002000F0E8
:1011A0009FF8002000F09CF8002000F099F8002043
:1011B00000F096F8002000F093F8F02000F096F888
:1011C000002000F08DF8502000F08AF8002000F098
:1011D00087F8002000F084F8002000F081F8F32068
:1011E00000F084F8002000F07BF8F92000F07EF891
:1011F000062000F075F8102000F072F8292000F0A9
:101200006FF8002000F06CF83A2000F06FF85520DD
:1012100000F066F8112000F069F86420FEF7EEFF98
:10122000292000F063F8352000F060F8002000F07D
:1012300057F8512000F05AF8FF2000F051F85320E1
:1012400000F054F82C2000F04BF8552000F04EF838
:10125000822000F045F82C2000F048F801200149D8
:10126000086010BD8081214200B502460B462A204D
:1012700000F03CF8101200F033F8D0B200F030F873
:101280002B2000F033F8181200F02AF8D8B200F042
:1012900027F800BD2DE9F04F83460E4617469846C5
:1012A000099C002517E0701981B25846FFF7DCFF52
:1012B0002C2000F01BF84FF0000909E0607821783D
:1012C00040EA012A504600F00BF8A41C09F101097C
:1012D000B945F3D36D1C4545E5D3BDE8F08F00005B
:1012E0000149088070470000000020604FF0C041B5
:1012F0000880704706480078012808D10548007822
:10130000FF2804D203480078401C02490870704747
:10131000360000202900002010B500241A4800786B
:10132000012830D1FEF7FEFE04461848007820B1AF
:1013300016480078401E1549087014480078F8B91E
:1013400013480078E0B900F0A9F81248124909786A
:1013500050F82100114908600F48007810490978B9
:1013600088420DD00D480068806B401C0B4909680D
:1013700088630C480068401C0A490860FEF7F1FECB
:101380002046FEF7D3FE10BD3600002029000020C5
:101390002A000020701100202C00002044000020B2
:1013A0002B000020100000207047000070B50026C0
:1013B00000F072F8FEF7B6FE064631480068401CA1
:1013C0002F4908603046FEF7B1FE2E48007801280C
:1013D00053D12D48007820B1012804D0022809D12A
:1013E00003E001250BE0002509E001250120264945
:1013F000087004E0012500202349087000BF00BFE9
:1014000005B970BD2148046833E0FEF78BFE06463F
:10141000E06A50B3E06A401EE062E06A28BB94F8DC
:10142000300000F0370040B114F8300F00F0C80071
:10143000207001206070303C02E0002084F8310010
:1014400094F8300000F0080078B93434A0781049DE
:10145000097808430E49087020780E49085C6178C5
:10146000084314F834190B4A505464693046FEF7A7
:101470005DFE94F832003F28C7D100BFC1E70000ED
:1014800054000020360000204C00002048000020BE
:101490002D0000202E000020704700000649074A5A
:1014A0001278885C0649095C034A515C01EBC00173
:1014B000044A117070470000109000082D000020B1
:1014C0002E0000202C00002010B500F001F810BD07
:1014D0000CB50020019000903348006840F4803043
:1014E0003149086000BF3048006800F400300090C7
:1014F0000198401C0190009818B90198B0F5A06FB0
:10150000F1D12948006800F4003010B101200090AA
:1015100001E0002000900098012843D12348006892
:1015200040F01000214908600846006820F00300E0
:1015300008600846006840F0020008601A484068E9
:10154000194948600846406848600846406840F4C9
:10155000806048600846406820F47C104860084677
:10156000406840F4E81048600846006840F0807029
:10157000086000BF0C48006800F000700028F9D037
:101580000948406820F00300074948600846406861
:1015900040F00200486000BF0348406800F00C00C3
:1015A0000828F9D10CBD00000010024000200240C4
:1015B00010B5FFF79FFEFFF7F9FEFFF7ADFE10BD78
:1015C00010B51348006840F0010011490860084652
:1015D0004068104908400E494860084600680E49B6
:1015E00008400B4908600846006820F48020086025
:1015F0000846406820F4FE0048604FF41F008860F1
:10160000FFF762FF4FF000600449086010BD000062
:10161000001002400000FFF8FFFFF6FE08ED00E0BA
:1016200000204FF0804108820120074908700749D7
:1016300008708007008820F001004FF0804108808A
:1016400000200349086070470F0000200C000020B4
:101650000000002000200A49088002200949087083
:1016600001200949087006481038008820F0010060
:1016700003491039088000200449086070470000C1
:10168000100400400F0000200D0000200400002086
:1016900000200A49088003200949087001200949EF
:1016A000087006481038008820F0010003491039FE
:1016B00008800020044908607047000010080040BE
:1016C0000F0000200E0000200800002000204FF036
:1016D000804188840846008840F00100088000208E
:1016E0000D4908700D480068B0F5806F0FDA0C489E
:1016F0000088C1B2094802680068401C074B1860A6
:1017000008488154002007491A461268885400206E
:101710000349091F088070470C00002000000020CA
:101720000438014058000020002012490880114868
:101730002438008840F001000E49243908800E4802
:101740000068B0F5806F0FDA0C480088C1B20A4813
:1017500002680068401C084B18600948815400204A
:1017600007491A461268885400200449091F088056
:10177000704700002404004004000020044400409E
:10178000580400200020124908801148243800889D
:1017900040F001000E49243908800E480068B0F579
:1017A000806F0FDA0C480088C1B20A4802680068EE
:1017B000401C084B186009488154002007491A460C
:1017C0001268885400200449091F088070470000EF
:1017D0002408004008000020044800405808002069
:1017E00010B5464B984226D10023454C2360454C0A
:1017F0002370454B9B6943F00403434CA361434B67
:101800001B6823F47F63414C236023461B6843F429
:101810000B6323603C4B9B6943F480433A4CA361C8
:101820002346DB6843F48043E3602346DB6823F40C
:101830008043E3604CE0364B984223D1324B9B69A6
:1018400043F00403304CA361304B1B1F1B6823F48F
:101850007F432E4C241F236023461B6843F40B4315
:101860002360294BDB6943F40033274CE3612346B3
:101870001B6943F40033236123461B6923F40033BF
:10188000236125E0234B984221D11F4B9B6943F0F4
:1018900008031D4CA361204B1B6823F47F431E4C9F
:1018A000236023461B6843F40B432360164BDB691C
:1018B00043F48023144CE36123461B6943F48023E3
:1018C000236123461B6923F48023236100E010BDBC
:1018D000124B4B43B3FBF2F30381838943F00403C0
:1018E0008381838943F008038381838943F4005310
:1018F00083810023014C238000BFE8E700380140CA
:10190000000000200C0000200010024004080140EC
:101910000044004000480040040C014040420F00D9
:1019200002E008C8121F08C1002AFAD170477047A8
:10193000002001E001C1121F002AFBD17047000006
:1019400008B500BF4FF4E13248211848FFF748FFBF
:1019500000F036F8FEF778FC4FF6FF70FEF760FCFB
:1019600013483C232822002100900F20FFF792FC0F
:1019700010483C231A46194600900320FFF78AFCC2
:101980000D483C234022782100900020FFF782FC84
:101990000A483C235822B42100900020FFF77AFC2B
:1019A00003E04FF4FA70FEF729FCFAE70038014033
:1019B000F0190008B02C0008D0480008D0660008D4
:1019C0004FF0E020006920F004004FF0E0210861B2
:1019D0000020886142F2283048610846006940F0E2
:1019E000020008610846006940F001000861704784
:1019F000EF3BEF3CEF3CE71BE6FBE71CE71CE71C7B
:101A0000E71CE73CE73CEF3CEF5CEF5CEF5CEF5C36
:101A1000EF3CEF5CEF7DEF7EE75EDF3DE73DE75DAE
:101A2000EF3CEF3CEF3BEF3BEF1BE73BE73CE73C9A
:101A3000E73CE71BE71BE6FBE6FBE71BE71BE71BB7
:101A4000E71BEF3CEF3CE71CE71CE73CEF3CE73CC7
:101A5000EF5DEF5DEF5DEF5CEF5CEF5CEF5CEF5C2B
:101A6000EF3CEF5CEF7DEF7DE77EE75EE75DEF7DCE
:101A7000EF5CEF5CEF5CEF5BEF3CEF3CE73CE73C9F
:101A8000E73CE73CE71BE71BE71BE71BE71BE71B04
:101A9000E71BE73CE73CE73CE73CE73CE73CE71C6F
:101AA000E73CE73CE73CE73BE73BEF5BEF5CEF5CA9
:101AB000EF1BEF3BEF3CE75CE75DE75DE75DE75D74
:101AC000EF3CEF3CEF3BEF3BEF3BE73CE73CE73CD9
:101AD000E71CE71BE6FBDEFBDEFBDEFBE6FBE71BB2
:101AE000E73CE73CE73CE71CE71CE73CE73CE71B3F
:101AF000E71BE71BE71BE73BEF3BEF5BEF5BEF5BB6
:101B0000EF1AEF1BEF3CE73CE73DE75DE75DE73CA5
:101B1000E73CEF3BEF3BEF3BE71BE71BE71CE71C1A
:101B2000E71BE71BE6FBDEFBDEFBDEFBE6FBE6FB83
:101B3000E75DE75DE73CDF1BE71BE75CEF5CE73B4E
:101B4000EF5BEF5BEF5BEF5AEF3AEF39E719E6F93E
:101B5000EF1AF75BF77CEF5CE75DEF7DEF7DE75D0C
:101B6000EF5CEF5CEF5CEF5BEF3CEF3CE73CE73CAE
:101B7000EF5CE73CE73CE73CE71BE73CE73CE73C46
:101B8000E75DE75DE73CE71CE73CEF7CF77BEF5A5E
:101B9000F77AF75AF739EF18E6D7DE96D675D655A5
:101BA000EED8F73AF77CEF7CEF5CEF7DEF7DE75CFA
:101BB000EF5CEF5CEF5CEF5CEF5CEF3CE73CE73C3D
:101BC000EF5CEF3CE73CE73CE73CE73CE73CEF3CC5
:101BD000EF5DEF5DEF5CEF3BEF5BF75BEF39EEF84E
:101BE000EEF7E6D6E695DE74DE33D633D613D6139B
:101BF000E676EEF9F75BF75BE75CE75CEF7DE75CC9
:101C0000EF5CEF5CEF3CEF5BEF3CE73CE73CE73C35
:101C1000EF3CE73CE73CE71BE71BE71BE73CE73C07
:101C2000F75CF75CF75CF73BF73AF739EED7DE7411
:101C3000E654DE53DE12DDF1DE11DE32E652EE74E2
:101C4000DE34F6F8FF7BF77CEF5CEF7DEF9DEF7DF8
:101C5000EF7DEF7DF77CF75CEF5CEF5CEF5DEF5CB9
:101C6000EF5DEF5CEF3CE73CE73CE73CEF3CEF5CD3
:101C7000F73BFF7CF71AE697EEB6DE54D5D1DDF1DF
:101C8000DDF1E611EE31EE51EE51EE51EE51EE7214
:101C9000DE13EE96FF39F75BEF3BF79DF7BEEF5D86
:101CA000EF7DEF7DF75CF75CEF7CEF5CEF5DEF7D48
:101CB000EF5CEF5CEF5CE73CE73CEF5CEF5CEF5C1C
:101CC000FF7BF719E676DE34E634E612E5F1E6311D
:101CD000EE30EE10EE10EE10F630F671FE92FEB31E
:101CE000EE53EE75F718FF7BF77BEF7CEF7DEF5C33
:101CF000EF7DEF7DF77CF75CEF7CEF7DEF5DEF5DD7
:101D0000EF5CEF5CEF5CE73CE73CEF5CEF5CEF5CCB
:101D1000FF3ADE56D5F3DE13E612E5F1EE31F6308A
:101D2000F630EE0FF60FF60FF650FE71FE92FE92B1
:101D3000F674E634EED7FF9AFFBCF79CEF9DEF9D5B
:101D4000EF7DEF7DF77CF77CF77DEF7DEF7DEF7D1D
:101D5000EF5CEF5CEF5CE73CE73CEF5CEF5CEF5C7B
:101D6000EE97CD92D5B2EE74EE33E611EE30EE3052
:101D7000F60FF60FF60FF630FE50F651F631EE1173
:101D8000F673E633EE75FF39FF9BF7BCF7BDF7BD81
:101D9000EF9DEF7DF77CF77CF77DEF7DEF7DEF7DAD
:101DA000EF5DEF7DEF5CEF3CEF3CEF5CEF7DEF5CD8
:101DB000DE56C551CDB2EE95EE73EE31EE31F63012
:101DC000F60FF62FF630F630F630EE10EE31EE323A
:101DD000FE93EE53EE75EED7F73AF79CF7BDEF7C26
:101DE000EF9DF77DF77DF77DF77DEF7DEF7DEF7D53
:101DF000EF7DEF7DEF7DEF5CEF5CEF7DEF7DEF7DC5
:101E0000E697CDB3CD92E633EE73EE52EE51F67116
:101E1000F650F630EE10EE10EE10EE32F653F6738A
:101E2000FEB4F673F695EED7EF19F79CF7DDEF7C6D
:101E3000F79DF79DF79DF77DF77DF77DEF7DEF7DB2
:101E4000EF7DF77DEF7DEF5CEF5CEF7DF77DEF7D64
:101E5000EEF8D615C571D5B1EE74F693EE51F67164
:101E6000F671EE30E5F0EE11F652F673EE54EE3305
:101E7000EE12DDB0DDF2EEB6EF19F77BF7BDF7BD80
:101E8000F79DF79DF79DF79DF77DF77DF77DEF7D3A
:101E9000EF7DF79DEF7DEF5CEF5CEF7DF79DEF7DD4
:101EA000F73ADE56BD51C571EE95F6D4EE51EE51BE
:101EB000F671EE30E610EE52FEB4F6B5E613D571CB
:101EC000CCEDBC6BC50EE654EEF7EF39F79BFFDDAA
:101ED000F79DF79DF79DF79DF79DF79DEF9DEF9D72
:101EE000EF7DF79DF77DEF5CEF5CF77DF79DEF7D74
:101EF000EF5BE71AC5B4BD51E654F6B5EE72F6B223
:101F0000F691E60FDDCEE631FEF5EE94F6B6BCEFC7
:101F10009368B44BAC2AE612FF37E6B5FFBAF79BDD
:101F2000F79DF79EF79EF79EEF9EEF7DEF9CEFBC2F
:101F3000F79DF79DEF7DEF7DEF7DF79DF79EF79E77
:101F4000EF5BEF5BD637BD52D5F4EEB5F6B4F69243
:101F5000F691EE50E630DDEFFED4FF17DDF4B48EDF
:101F6000BCADD52FDDD0E652F6F4E694F758FFBBB2
:101F7000F79CF79EF79EEF9EEF9EEF9DEFBCEFBCA8
:101F8000F79DF79DEF7DEF7DEF7DF79DF79EF79E27
:101F9000EF5CF79CE6D9BD93C592E674FED5EE7270
:101FA000F691EE50DDEFBCECD5B0FF58E634CD92A3
:101FB000EE33F653FF36EE72E673E694EF17FFBB8F
:101FC000FF9CF79DF79EEF9EEF9EF7BDF7BDF7BD17
:101FD000F79DF79DEF7DEF7DEF7DF79DF79EF79ED7
:101FE000F77CF79CEF1ACDF5BD52DE13F6D5F6B3AC
:101FF000EE51EE30D58EB48AAC4AF6B5FED7EE750A
:10200000FEB5FE94F673D5B0C54EE673EED6EF3945
:10201000FF9CF79DF79EF79EF79EF7BEF7BDF79DD5
:10202000F79DF79DF79DEF7DEF7DF79DF79EF79E5E
:10203000F7BDF77CEF3BDE77C593CDB2EE74FEF4CF
:10204000E630EE71DDEFCD6E93C8C550FF18EE752A
:10205000F674E5F1AC2AAC4A9C09D5F1E6B5E6B6D2
:10206000FF9BFF9DF79EF77EF79EF7BEF7BDEF7DC6
:10207000F79DF79DF79DEF7DF79DF79DF79EF7BEC6
:10208000F7BDF77CEF3BE6D9D635C592DE12FEF5FB
:10209000F692F692EE51DE109BE9A44BF6D6FEF7CF
:1020A000EE73CD2E8B469C099C09CDD0EED5E6B6BD
:1020B000F75AFF9CFFBDF79DF79DF79EF79DEF7DBB
:1020C000F79EF79DF79DF79DF79DF79EF79EF7BE4C
:1020D000F7DEFFDEEF5CEEFAE698CDB3CDB1F6D4D5
:1020E000FEF4F692F692DE10B4CC9C0AD5B2FF58FC
:1020F000F694BCECBCCCC54ECD8FE652EED5EEF7D7
:10210000EEF8FF7BFFBDF79DF77DF79EF7BEEF9DD5
:10211000F79EF79EF79DF79DF79DF79EF79EF7BEFA
:10212000F7BEFFFFF79DEF1AEED9CDD4C591EE941F
:10213000F6D4EE92FF14E651DE11A42BA40BF6B5F3
:10214000EE94B48BF6D4EEB3FF36EEB4E674EED66E
:10215000E6B6FF5AFFBCFF9DF77DF79EF7BEF79EE0
:10216000F79EF79EF79DF79DF79DF79EF7BEF7BE8A
:10217000F7DEFFDEF77DF77CEF1AD636D614CDB149
:10218000EEB4F6B3F6D3D5CFC50DAC6C93CABCEEA6
:10219000EE94DDF1F6B4EE94F6D5DE32B4CDE6532E
:1021A000EEB6EED7FF7BFFFDF75CEF5CFFDFEF5D88
:1021B000F79EF79EF79DEF7DEF7DF7BEF7BEF7BE6A
:1021C000F7BEFFDFF79DF79DEF3BDE77D635C59174
:1021D000F6F5F6B4E652DDF0E632D5B0A42B93A9BD
:1021E000F6B5FEF5E653D5B09BE98B889BEAC54F63
:1021F000F6F6F6F7FF7AFFBCF77CF77DFFDFF79E78
:10220000F79EF79EF79DEF7DEF7DF7BEF7BEF7BE19
:10221000EF9EFFFFF79EF79DF75CE6D9DE76C5924D
:10222000E653F715F6B3EE93EE93D5D0AC8C834717
:10223000DE33F715DE32FF169C0A72A58B67B4AC4D
:10224000E653EE95F717FF9AFFBDFFBEF79FEF7EAF
:10225000F79EF79EF79EEF7DEF7DF7BEF7BEF7BEC8
:10226000EF9EFFFFF7BEF79DF77CEF1AE6B8CDB300
:10227000C590F715FF15F6F4EE72D5B0CD4F9C0A58
:10228000ACADFF78EE95CD7093CAB4ADD590CD4E80
:10229000EE73EE94F6F6F718FFBCFFDEF77EF77EDE
:1022A000F79EF7BEF79EEF7DEF7DF7BEF7BEF7BE58
:1022B000EFBEFFFFF79EEF7DF77DF73BEEF9D634DB
:1022C000C570E674EE93F6D4F6B4EE73E632B4ADB0
:1022D0009C2BF6F6FF17B4EEBCEEF6B5FEF5FED479
:1022E000FEF5F6B4F6F5EEB6F73AFFBDF75DFFDFA3
:1022F000F79EF7BEF79EEF7DF79DF7BEF7BEF7BEE0
:10230000F7DFFFFFEF9EF79EF77DF73CF73AE69683
:10231000CDB2D612E673F6D4F6B4EE73DDF2B4CDD8
:102320009C2BBD50FF58F6B6FEF7FEF6DDB1FEB4AD
:10233000D5AFD58FEEB4EEF6F759FFDEF75DF7BFF8
:10234000F79EF7BEF79EEF7DF79DF7BEFFDEF7BE67
:10235000F7DFFFFFEF9EF7BFF79EEF5CF75BEEF84E
:10236000D613CDD1EE94FEF5EE73E632DDD1D5B1C4
:102370009C2BA4AEEEB6EE96DDD3F695C4EEB48BF0
:10238000A409A429E652F716F739FFDDF77DF77E99
:10239000F79EF7BEF79EF79DF79DF7BEFFDEF7BEEF
:1023A000F7BFF7DFEF9EFFDFFFBFEF3CF75BEF19F3
:1023B000DE75BD70DE53F6D5F6B4F6B4F673FEF5F1
:1023C000B4ED8BC9CDB1FFDAE634EE74B48C9387EB
:1023D000AC29A3E8E611EEB4E696FF9BF79DFFBE9D
:1023E000F79EF7BEF79EF79DF79DF7BEFFDEF7BE9F
:1023F000F7DFFFFFEF9EF7BEF7BFF77DF79DE6FA29
:10240000EEF9C5B3CDB2EE95EE94F6B4FEB4EE514E
:10241000BD0CA48AACCBF736FF78DE12A40AA40A5E
:10242000CD0ED54FE5B0FED5F6D6FF79F77AF79CFD
:10243000F79CFFBEF77DFFBEFFBEEF7DFFDEFFBE58
:10244000F7DFFFFFEF9EF7BEF7BEEF9EF79DE71B9E
:10245000E6F9C5D4C5B2DE54EE94FED4FED4F671CE
:10246000F6B1B50AA469D611FF77D5F2BD0FE5F232
:10247000FE74FE94FEB4FE74EE74E6B5F779FFFCCC
:10248000F79CFFBEF77DF79EF79EEF7DFFDEF7BE60
:10249000F7DFFFFFEF9EF7BEF7BEF79EF7BEEF5CDC
:1024A000EF1AD656CDD3D5F2EE74FEF5FED4F67102
:1024B000EE91BD0BA449B50DFF57EEB5E654FED61F
:1024C000EE12FE73FEB4EE32FEF6EE94EF17F77ADC
:1024D000FFBCFFBEF75DF79EF79EF77DFFDEF7BD01
:1024E000F7DFFFFFEF9EF7BEF7BEF79EFFDEF77C3C
:1024F000F75BEEF9D614CDB2E653FEF5FEB3EE511E
:10250000DDCEDDCFB4CCA46AE694FF78F6F6E633F0
:10251000FED5EE32C4ACA3E9D590EE74F717FFDB1D
:10252000FFBCFFDEF77DF79DF79EF79EFFFFF79D4F
:10253000F7DEFFFFF79EF7BEF7BEF79EFFDFF79DC2
:10254000F77CF73ADE56CDB2DE13F6B4F6B4EE728F
:10255000F671FEF4CD4E9C09BD0EFF57F6F6DE1364
:10256000F694E5F1AC09A3E9CD4FF694EE74F6F7D5
:10257000FF9CFFDEF79DF79EF79EF7BEFFFFF7BEBD
:10258000F7BEFFFFF7BEF7BEF79EF79EFFDFF79D92
:10259000F77CF73BE6B7D5F4D5D2EE74F6D5F693D3
:1025A000FEB3FEF4D58FB48CA46BE654EEB5EEB555
:1025B000E653E612B46BB44BC4EDEE53F653FEF79C
:1025C000F77AFFDDF79DF79DF79EF79EFFFFF7BEB9
:1025D000F7BEFFFFF7BEF7BEF7BEEF9EF7DFF79D32
:1025E000F77CEF3BEEF9DE56CDB2DE13F6D5F6946E
:1025F000FE73FE73EE12CD2FAC8CC570E694EED553
:10260000BD0ECDB0E611EE52F673FE94F653E5F230
:10261000F719FFDCF7BDF7BDF79DEF9DF7FFEFBEA4
:10262000F7BDFFFFF7BEF7BEF7BEEF9EF7DEEF7D0B
:10263000F79DEF3BF75BE6B7C592D5D2EEB5F694C2
:10264000FE94FE94FEF6DD90B48CB4CDE674E69470
:10265000CDD1DE12F6D4F673FEB4FE73FED4F6537B
:10266000EEF7FFBBFFBCF7BDEF7DEF7DF7FFEFBEE1
:10267000F7BEFFDEF7BEEF9DF7BEF7BEEF7EF7BEFB
:10268000F7BEF77CF75BEEF9D615C591DE13FEF6C3
:10269000FE94FE94E5B1DDB1C4EE9BE9C570FF3652
:1026A000E694DE33E653F694EE32DD8FE58FF65294
:1026B000EEB5EF39FFDCFFBCEF5CF79EF7DFEF7E96
:1026C000F7BEFFDEF7BEEF9DF7BEF7BEEF7EF7BEAB
:1026D000F7BEF77DF75BEF1ADE56C5B3D5F3F6B557
:1026E000FE74FE73F632F653DDD1AC6BBCEDEED565
:1026F000E694D612DE33FEF5F652BC6BBC49E5F02B
:10270000E674EEF7FF9AFFBCF77CF79EF7DFEF9ECB
:10271000FFBDFFDEF7BDEF9DF7BEEF9EEF9EF7BE5C
:10272000F7BEF79DF77CF73BE698CDF4CDF3E65482
:10273000FEB5FE93FE93FE94F652BCCCA40AD5D10E
:10274000EED5E674DE33EE94EE52BC6AB3E8E5AF44
:10275000EE73E6B5F739FF9BF77CF79DF7BFF7BE41
:10276000FFBDFFDEF79DEF7DF7BEEF9EEF9EF7BF4B
:10277000F7BEF79DF77DF77CEEF9D656CDF4CDD2B6
:10278000FED5FE93FEB4F652F673D56F9BE9BCEE10
:10279000EEB5F6F6D5F2C56FDDF1DD8FD52CEE1076
:1027A000F693E674F6D6FF5AFF5CF77DF7BEF79E08
:1027B000FFBDFFDEF79DEF9DF7BEEF9EEF7EF7BFFB
:1027C000F79EF79DF79DF77CEF1ADE97CDF4C59243
:1027D000EE94F6B3FEB3EE31FE93F652BCACB48C7D
:1027E000D5F3F6F7D5F3B4EED5D0F672F650FE92E7
:1027F000FEB3EE53EE95FF18FF5BFF9DFFBEEF7E2D
:10280000F7BDFFDDF79DEF7DF7BEEF9EEF7EF7BFD3
:10281000EF9EF79EF79DF77CEF3BE6D8D636C5B224
:10282000DE32EEB3FED3F651FE72FE73CD2EA3EA76
:10283000BD0FEE95E675CDD1DE12F692F671FE91E2
:10284000EE30E611EE53F6D7FF3AFF9DFFBFF77E5D
:10285000FFBDFFDDF79DEF7DF7BEEF9EEF7EF7BF7B
:10286000EF9EF79EF79DF77CEF5BEF19DE77CDF3D8
:10287000CDF1E672F6B2FEB2F651F631DDB0AC2B18
:10288000AC6DDE14EED7E674E673EE72E5EFD56D4F
:10289000CD0CD56EEE33F696F6F9FF7CFFBEF77ED3
:1028A000F7BDFFDEF79DEF7DF7BEEF9EEF7EF7BE33
:1028B000EF9EF7BEF79EEF7DEF5CEF3BDEB8CE15E7
:1028C000C5D1D631E671FEF3F651EE10FE93D52F49
:1028D000A3EBD5B2EE96DE34E632EE92D58DA3E7C9
:1028E000ABE7C4CCE5F1EE75EE97FF3AFF9DF75DDF
:1028F000F7BEF79DF79DF79DEF7DEF9EF79EF79E44
:10290000F79EF79DF79DEF7DEF7DEF5CDEDAD65702
:10291000CDF2CDD0E672F6B2F670F671FE71DDB092
:10292000A3EAB48DE635EE75E633EE52C52CAC283D
:10293000A3C7B449E5B0F674EE54FF18FFBCF73BEB
:10294000F79EF79EF79DEF7DEF7DEF7DF79DF79D5D
:10295000F79DF79DF79DEF7DEF7DEF5DDEFBD67870
:10296000C5D3C5B1DE31F6B2F670F690FE91EE3108
:10297000CD0EAC0BCD31EE95E633CD6FC52CC50B2E
:10298000D54DDD8EF631EE52E612F6B6FF9BFF9B7B
:10299000F79EF79DF79DEF7DEF7DEF7DF79DF79D0E
:1029A000EF7DF79DF79DEF7DF79DEF7DE71BDEB98E
:1029B000CDF4C5B1D5F1EE71F670F670FE91F671F9
:1029C000E5F1A40BAC4DEE55E633C52ECD8FDDCF32
:1029D000F650FE71F672E611DDD1EE54FF38FF9B22
:1029E000F79DF79DEF7DEF7DEF7DEF7DEF7DEF7D37
:1029F000EF7DF79DF79DEF7DF79DEF7DE73CDEDAFC
:102A0000D656CDD2CDB0E631F691F670F650F6300E
:102A1000E5D0BCAD9BEBCD91EE74D5D1DE31E610A7
:102A2000E610EE30E5EFD5AFDDD1E633F6B6FF596F
:102A3000F79DEF7DEF7DEF7DEF7DEF7DEF7DEF7D0E
:102A4000EF7DF79DF79DEF7DF79DF79DEF5CE71B11
:102A5000DEB8CDF4C570D5F0F691F670EE0EEE0F3F
:102A6000E5CFDDB09BEAAC8DEE74E654DE12E632C3
:102A7000D58ECD4CBCABBCABCD6EDE12EE95FF3728
:102A8000EF7DEF7DEF7DEF5DEF5DEF5DEF7DEF7D46
:102A9000EF7DEF7DF79DEF7DEF7DEF7DEF5DE73B18
:102AA000DEB9CE15BD50CD8FEE51F670EE0EEE0FA5
:102AB000EE50E611A40A9BEAD5D2DE13D5B2E65356
:102AC000C52DAC4893A69BC7AC8BCD6FE653F6D50E
:102AD000EF7DEF7DEF5DEF5DEF5DEF5DEF5DEF7D36
:102AE000EF7DEF7DF79DEF7DEF7DEF7DEF5DE73CC7
:102AF000E6DAD657BD71BD2FE610F650EE2FF64F31
:102B0000F670E5F0BCED9C0AB4AED5D3D5D3DE1398
:102B1000B4AB93A69386A408AC8AC54DDE11E6310A
:102B2000EF7DEF7DEF5DEF5CEF5CEF5DEF5DEF5D07
:102B3000EF7DEF7DF79DEF7DEF7DEF7DEF5DE73C76
:102B4000E6FBDEB9C593BD0FD5B0EE30EE2FF670C3
:102B5000EE2FDDEFDDF0A44B93EBDDF3E656D5B2BF
:102B6000A44A8B86A428C52CC54DD5AEDE10D5AFA2
:102B7000EF5CE73CE73CE73CE73CEF5CEF5CEF5D9C
:102B8000EF5DEF5DEF7DEF7DEF5DEF5CE73CE73CF8
:102B9000E6FCD679C5D4BD10BCEDDDCFEE50E5EE38
:102BA000DDCDEE30DDF0B4CD9BEBA46DC552DE146F
:102BB000ACACC52DD5CFD5CFD5AECD8ED5CFDE0F14
:102BC000EF5DEF5CEF5CEF5CEF5CEF5DEF5DEF7D89
:102BD000EF7DEF7DEF7DEF7DEF7DEF5DEF5CEF5CF7
:102BE000E71CDEBAD636C571C50EDDAFF650EE2F46
:102BF000EE50EE50DDF0BD2E9C0B8BABA44EBD31E4
:102C0000CD90CD8FCD8ED5AFDDEFDDEFD5AECD6DD7
:102C1000EF5DEF5DEF5DEF5DEF5DEF7DEF7DEF7DF4
:102C2000EF7DEF7DF79DF79DEF7DEF7DEF7DEF7DF4
:102C3000E73CE71BDEB9CDD4C52FD590EE31F65079
:102C4000FED2EE71EE72EE73D5D2B4F0C553EE97AC
:102C5000EED5E673DE31E651EE92EE91E630D5CE5A
:102C6000EF7DEF5DEF5DEF5DEF5DEF7DEF7DEF7D84
:102C7000EF7DEF7DF79DF79DF79DEF7DEF7DEF7D7C
:102C8000E75DE73CE6FAD615C550D590EE11F65152
:102C9000F671E5EFDE10E632CD91A46EACB0CDB3A7
:102CA000D5D2CDD0CDAFCD8FCD8ECD6DCD4CCD6C21
:102CB000FFFFFFFFFFFFFFDFFFDFFFDFFFFFFFFF84
:102CC000FFDFFFDFFFDFFFDFFFDFFFDFFFDFFFDF14
:102CD000FFBEFFBEFFDEF7DEF7FEF7FEF7FEF7FEF4
:102CE000FFFEFFFEFFDEFFDEFFDEFFDEFFDEFFFE9C
:102CF000FFFFFFFFEF5EFFFFFFDFFFFFFFDFFFDFF5
:102D0000F7DFF7DFFFDFFFDFFFDFFFDFFFDFFFFFC3
:102D1000FFDFFFDFFFDFFFDFFFDFFFDFFFDFFFDFC3
:102D2000FFDFFFFFFFFFFFFFFFFFFFFFFFFFFFFFD3
:102D3000FFFFFFFFFFFFFFFFFFFFFFFFFFFFFFFFA3
:102D4000FFFFFFFFFFFFFFFFFFFFFFFFFFFFFFFF93
:102D5000FFFFFFFFFFFFFFFFFFFFFFFFFFFEFFFE85
:102D6000FFFEFFFEFFFEFFFFF7BEFFFFFFDFFFDFFF
:102D7000FFDFF79FFFFFF7BFFFDFFFDFFFDFFFDFB3
:102D8000FFDFFFDFFFFFFFFFFFFFFFFFFFFFFFFF93
:102D9000FFFFFFFFFFFFFFFFFFDFFFDFFFFFFFFF83
:102DA000FFDFFFDFFFDFF7BEF7BEF7BEF7BEFFDFD7
:102DB000F79EF79EF79EF79EF79EF79EF79EF79E6B
:102DC000F79EF79EF79EF7BEEFBEEFBEEFBEF7BED3
:102DD000F7DEFFBEFFBEFFBEFFBEF7DEF7DEF7DEAB
:102DE000F7BEFFFFFFFFF79DFFDFEF5DFFFFF79EE1
:102DF000F79EF79EF7BEF7BFF7BFF7BFFFBFF7DF3E
:102E0000F79EF79EF79EF79EF79EF79EF79EF79E1A
:102E1000F7BEFFDFFFFFFFFFFFDFFFDFF7BEF7BEFD
:102E2000F7BEF7BEF7BEF7BEF7BEF7BEF7BEF7BEFA
:102E3000F7BEF7BEF7BEF7BEFFBEFFBEF7BEF7DEBA
:102E4000F7DEF7DEF7DEF7BEF7BEFFBEFFBEF7BE6A
:102E5000F7BEF7BEF7DEEFDEF7FFEFBEDF5CE77D24
:102E6000FFFEEF7DFFDEFF9DFF9DF79DF79EF79E26
:102E7000F79FF7BFF7BFF7BFF7BFF7BEF7BEF7BEC5
:102E8000F7BEF7BEF7BEF7BEF7BEFFDFFFDFFFDF1F
:102E9000FFFFFFFFFFDFFFDFFFDFFFDFFFDFFFDF02
:102EA000FFDFFFDFFFDFFFDFFFDFFFDFFFDFFFDF32
:102EB000FFFFFFFFFFDFFFDFFFDFFFDFFFDFFFDFE2
:102EC000FFBEFFBEFFDEFFDEFFDEF7DEF7FEEFFF39
:102ED000F7FFCF3CADF7DF7CF7FEF7DEF79DFFBDD8
:102EE000FFBDFFBDFFBEFFBEFFBFF7DFF7DFF7DFB0
:102EF000FFDFFFDFFFDFFFDFFFDFFFDFFFDFFFDFE2
:102F0000F7BEF7BEFFDFFFDFFFFFFFFFFFDFFFDFE3
:102F1000FFDFF7BEF7BEF7BEF7BEF7BEF7BEF7BEE0
:102F2000F7BEF7BEF7BEF7BEF7BEF7BEF7BEF7BEF9
:102F3000F79EFF9EFF9EFF9EFFBEFFBEFFBFF7DE18
:102F4000F7DFF7FFF7FFEFFFDFFFA67A7D14CF3C37
:102F5000F7FFFFFFF79CFFDDFFBDFFBDFFBEFFBE1C
:102F6000F7BFF7DFF7DFF7DFF7BFF7BEF7BEF7BE54
:102F7000F7BEF7BEF7BEF7BEF7BEF7BEFFDFFFDF57
:102F8000FFDFFFDFF7BEF7BEF7BEF7BEF79EF79E87
:102F9000FFDFFFDFFFDFFFDFFFDFFFDFFFDFFFDF41
:102FA000F7FEF7FEFFDFFFDFFFBFFFBFFFBFFFBF83
:102FB000FF9EFF9EF7BEF7BEEFDEEFDEEFDEE7FF20
:102FC000AF5E75D964F5AEDCE7FFEFFFF7BDFFBD7F
:102FD000FF9DFF9DFF9DFF9DF79EF7BFEFBFEFBFDA
:102FE000FFDFFFDFFFDFFFDFFFDFFFDFFFDFFFDFF1
:102FF000F7BEF7BEFFDFFFFFFFFFFFFFFFDFFFDFD3
:10300000F7BEF7BEF7BEF7BEF7BEF7BEF7BEF7BE18
:10301000F7BEF7BEF7BEF7BEEFDEEFDEF7BEFFBED0
:10302000FF9EFF9EFF9EFF9EFFBFFFBFF7DFF7DF04
:10303000EFDFEFFFEFFFDFFF869D4D795537969C61
:10304000DFFFDFDFEFFFF7BEFFBDFFBDFF9DFFBD71
:10305000FFBEF7BFF7BFF7BFF7BFF7BEF7BEF7BEBC
:10306000F7BEF7BEF7BEF7BEF7BEFFDFFFDFFFFF1D
:10307000FFDFFFDFFFDFF7BEF7BEF7BEF7BEF7BE2D
:10308000F7BEF7BEF7BEF7BEF7BEF7BEF7BEF7BE98
:10309000EFDEEFDEF7BEFFBEFF9FFF9FFF9FFF9FAC
:1030A000FFBFEF7EEFBFEFFFE7BEEFFFE7BECFDF73
:1030B000663C3D7A457A65DAAF5FDFFFE7DFF7FF11
:1030C000FFBDFFBDFF9DFF9DFFBEF7BEF7BFF7BF72
:1030D000F7BFF7BEF7BEF7BEF7BEF7BEF7BEF7BE47
:1030E000F7BEFFDFFFDFFFFFFFDFFFDFFFDFF7BE22
:1030F000F7BEF7BEF7BEF7BEF7BEF7BEF7BEF7BE28
:10310000F7BEF7BEF7BEF7BEEFDEEFDEF7BEFFBEDF
:10311000FF9FFF9FFF9FFF9FF7BFEFDFE7BECEFB45
:10312000DFBEE7DFEFFFB71E2CD835BC4DFD4D9A53
:10313000761BBFBFE7FFE7BFF7BEFFBDFF9DFF9D4B
:10314000FFBEFFBEF7BEF7BEF7BEF7BEF7BEF7BEC7
:10315000F7BEF7BEF7BEF7BEF7BEFFDFFFDFFFFF2C
:10316000FFDFFFDFFFDFF7BEF7BEF7BEF7BEF7BE3C
:10317000F7BEF7BEF7BEF7BEF7BEF7BEF7BEF7BEA7
:10318000EFDEF7DEF7BEFF9EFF9FFF9FFF9FF7BFBB
:10319000EFBFF7FFD79EA638E7FFE7FFF7FF9E3B9D
:1031A0003D3A3E1E45DD3D395538A71EE7FFE7DFB6
:1031B000F7DFFFBEFFBDFF9DFFBDFFBEF7BEF7BE41
:1031C000F7BEF7BEF7BEF7BEF7BEF7BEF7BEF7BE57
:1031D000F7BEFFDFFFDFFFFFFFDFFFDFFFDFF7BE31
:1031E000F7BEF7BEF7BEF7BEF7BEF7BEF7BEF7BE37
:1031F000F7BEF7BEF7BEF7BEF7DEF7DEF7BEFF9EFF
:10320000FF9FFF9FFFBFF7BFE7BEEFFFBEFB9E170D
:10321000E7FFEFFFEFFF8DB94DDB35DD357A457AFE
:103220004CF77DDAD7FFE7BFF7DFF7BEFFBEFF9EA3
:10323000FFBEFFBEF7BEF7BEF7BEF7BEF7BEF7BED6
:10324000F7BEF7BEF7BEF7BEF7BEFFDFFFDFFFFF3B
:10325000FFDFFFDFFFDFF7BEF7BEF7BEF7BEF7BE4B
:10326000F7BEF7BEF7BEF7BEF7BEF7BEF7BEF7BEB6
:10327000F7DEF7BEFFBFFF9FFF9FFF9FF7BFEFDFA8
:10328000E7FFDFFF8DD79618DFFFEFFFE79FA61A56
:1032900045383D9A4DBB661C5D377578D7BFF7FF43
:1032A000F7BFF7BFFFBEFFBEFFBEF7BEF7BEF7BE5C
:1032B000F7BEF7BEF7BEF7BEF7BEF7BEF7BEF7BE66
:1032C000F7BEFFDFFFDFFFFFFFDFFFDFFFDFF7BE40
:1032D000F7BEF7BEF7BEF7BEF7BEF7BEF7BEF7BE46
:1032E000F7BEF7BEF7BEF7BEF7BEF7BEFFBFFF9F44
:1032F000FF9FFF9FF7BFEFFFE7FFB75C753496585E
:10330000D7FFEFFFEFBFCF3F5D7845994D38553779
:103310006516963ADFFFF7FFF7BFF7BFF7BEF7BEB8
:10332000F7BEF7BEF7DEF7BEF7BEF7BEF7BEF7BED5
:10333000F7BEF7BEF7BEF7BEF7BEFFDFFFDFFFFF4A
:10334000FFDFFFDFFFDFF7BEF7BEF7BEF7BEF7BE5A
:10335000F7BEF7BEF7BEF7BEF7BEF7BEF7BEF7BEC5
:10336000F7BEF7BEFFBFFF9FFF9FF7BFEFDFE7FF8F
:10337000DFFF8E376D339658DFFFEFFFF7DFE7DFB4
:1033800096FD6E3A5D7754D485B8C75EDFBFE79F80
:10339000F7BFF7BFF7BFF7BEF7BEF7DEF7DEF7DE22
:1033A000F7BEF7BEF7BEF7BEF7BEF7BEF7BEF7BE75
:1033B000F7BEFFDFFFDFFFFFFFDFFFDFFFDFF7BE4F
:1033C000F7BEF7BEF7BEF7BEF7BEF7BEF7BEF7BE55
:1033D000F7BEF7BEF7BEF7BEF7BEF7BEFFBEFF9F54
:1033E000FF9FF7BFEFDFDFFFBFBF5D145D347E38A7
:1033F000DFFFDFDFF7BFEF9FDFFFBFDFBF7EAEFC8A
:10340000D79FEFFFE7DFF7FFF7BFF7BFF7BFF7BFC4
:10341000F7BFF7DFF7DFF7DFF7BEF7BEF7BEF7BEA0
:10342000F7BEF7BEF7BEF7BEF7BEFFDFFFDFFFFF59
:10343000FFFFFFDFFFDFF7BEF7BEF7BEF7BEF7BE49
:10344000F7BEF7BEF7BEF7BEF7BEF7BEF7BEF7BED4
:10345000F7DFEF9EF79EFFDFFFBFEF9FE7DFDFFFA6
:1034600075FA4D7845986E7BC7FFE7FFFF9FFF5EBB
:10347000EFBFEFDFEFDFEFDFEFDFEFDFF7BFF7BE2D
:10348000F7BFF7BFF7BEF7BEF7BEF7BEF7BEF7BE92
:10349000F7BEF7BEF7BEF7BEF7BEF7BEF7BEF7BE84
:1034A000F7BEFFDFFFDFFFFFFFFFFFDFFFDFF7BE3E
:1034B000F7BEF7BEF7BEF7BEF7BEF7BEF7BEF7BE64
:1034C000F7BEF7BEFFBEF7BEF7FFEFBEFFDEFFDEC3
:1034D000F79EFFFFE7FFAF3F5DBA459A3D995E5CFF
:1034E000BFFFDFFFFF7EFF7EFF9EF7BEF7BEF7BE8A
:1034F000F7BEF7BEF7BEF7BEF7BEF7BEF7BEF7BE24
:10350000F7BEF7BEF7BEF7BEF7BEF7BEF7BEF7BE13
:10351000F7BEF7BEF7BEF7BEF7BEFFDFFFDFFFFF68
:10352000FFFFFFDFFFDFF7BEF7BEF7BEF7BEF7BE58
:10353000F7BEF7BEF7BEF7BEF7BEF7BEF7BEF7BEE3
:10354000F7FFF7BEFFDFFFBEEF9EF7FFD7FF75FA6D
:103550004D7945BA459A5DFBC7FFE7FFF77EFFBE91
:10356000FFBEF7BEF7BEF7BEF7BEF7BEF7BEF7BEAB
:10357000F7BEF7BEF7BEF7BEF7BEF7BEF7BEF7BEA3
:10358000F7BEF7BEF7BEF7BEF7BEF7BEF7BEF7BE93
:10359000F7BEFFDFFFDFFFFFFFFFFFDFFFDFF7BE4D
:1035A000F7BEF7BEF7BEF7BEF7BEF7BEF7BEF7BE73
:1035B000F7BEF7BEF7BEF7BEF7DFF7BEF79EF7BF61
:1035C000F7FFE7FF9EFE4D783D7945FB457A5D9A12
:1035D000CFDFE7FFEF7DFFDEF7BEF7BEF7BEF7BE3A
:1035E000F7BEF7BEF7BEF7BEF7BEF7BEF7BEF7BE33
:1035F000F7BEF7BEF7BEF7BEF7BEF7BEF7BEF7BE23
:10360000F7BEF7BEF7BEF7BEF7BEFFDFFFDFFFFF77
:10361000FFDFFFDFFFDFF7BEF7BEF7BEF7BEF7BE87
:10362000F7BEF7BEF7BEF7BEF7BEF7BEF7BEF7BEF2
:10363000FFDEF7BEF77EF7DFEFFFB73E65B945B9AE
:1036400035BA461C455A5D39CFBFEFFFEF9DFFDD10
:10365000F7BEF7BEF7BEF7BEF7BEF7BEF7BEF7BEC2
:10366000F7BEF7BEF7BEF7BEF7BEF7BEF7BEF7BEB2
:10367000F7BEF7BEF7BEF7BEF7BEF7BEF7BEF7BEA2
:10368000F7BEFFDFFFDFFFFFFFDFFFDFFFDFF7BE7C
:10369000F7BEF7BEF7BEF7BEF7BEF7BEF7BEF7BE82
:1036A000F7BEF7BEF7BEF7BEFFBFFFBFF79EF7FF3F
:1036B000D7FF865B3D57461B35FB461D4D5A5D18AF
:1036C000C75FEFFFF7DEF7BDF7BEF7BEF7BEF7BE89
:1036D000F7BEF7BEF7BEF7BEF7BEF7BEF7BEF7BE42
:1036E000F7BEF7BEF7BEF7BEF7BEF7BEF7BEF7BE32
:1036F000F7BEF7BEF7BEF7BEF7BEFFDFFFDFFFFF87
:10370000FFDFFFDFFFDFF7BEF7BEF7BEF7BEF7DE76
:10371000F7BEF7BEF7BEF7BEF7BEF7BEF7BEF7BE01
:10372000FFBFF77EF7FFDFDF96BC55B83DB935FB2D
:1037300035FC3DFD457A5518AEFEE7FFF7FFF7BDB6
:10374000F7BEF7BEF7BEF7BEF7BEF7BEF7BEF7BED1
:10375000F7BEF7BEF7BEF7BEF7BEF7BEF7BEF7BEC1
:10376000F7BEF7BEF7BEF7BEF7BEF7BEF7BEF7BEB1
:10377000F7BEFFDFFFDFFFFFFFDFFFDFFFDFF7BE8B
:10378000F7BEF7BEF7BEF7DEF7BEF7BEF7BEF7BE71
:10379000F7BEF7BEF7BEF7BFFF9FEF5EEFFFBFBFFD
:1037A00055973D78465C2D9A2DBC3DDC459B4D38A8
:1037B0009EBDD7DFF7FFF7BEF7BEF7BEF7BEF7BE79
:1037C000F7BEF7BEF7BEF7BEF7BEF7BEF7BEF7BE51
:1037D000F7BEF7BEF7BEF7BEF7BEF7BEF7BEF7BE41
:1037E000F7BEF7BEF7BEF7BEF7BEFFDFFFDFFFFF96
:1037F000FFDFFFDFFFDFF7BEF7BEF7BEF7BEF7DE86
:10380000F7DFF7DFFFFFF7DEEF9EF7DEF7FFF79E4C
:10381000F73EFFFFC79F6DF945F935FA2DBA3E1DFA
:103820003DFE3D9C45DB3D58765AD7FFF7FFF7BE7E
:10383000F7BEF7BEF7BEF7BEF7BEF7BEF7BEF7BEE0
:10384000F7BEF7BEF7BEF7BEF7BEF7BEF7BEF7BED0
:10385000F7BEF7BEF7BEF7BEF7BEF7BEF7BEF7BEC0
:10386000F7BEFFDFFFDFFFFFFFDFFFDFFFDFF7BE9A
:10387000F7BEF7BEF7BEF7DEF7DEEFBEF7DEF7DF27
:10388000F7BEF7FFF7FFF79FFF9FEFDF96DC4DB81E
:1038900035F92DFB2D9B3DBD3DBD3DBC35DB357860
:1038A0005E39BFFFF7FFF77EF7BFF7BEF7BEF7BE83
:1038B000F7BEF7BEF7BEF7BEF7BEF7BEF7BEF7BE60
:1038C000F7BEF7BEF7BEF7BEF7BEF7BEF7BEF7BE50
:1038D000F7BEF7BEF7BEF7BEF7BEFFDFFFDFFFFFA5
:1038E000FFDFFFDFFFBFF7BEF7BEF7BEF7BEF7DEB5
:1038F000F7DFEF9EF7BEF7FFF7DEF7DEF7FFEFDF4C
:10390000FFFFBEFF65F9359825FA2E1C35BC3D7DBD
:103910003D7C45DD35FB2DB845D89F5EEFFFEF7F41
:10392000F7BFF7BEF7BEF7BEF7BEF7BEF7BEF7BEEE
:10393000F7BEF7BEF7BEF7BEF7BEF7BEF7BEF7BEDF
:10394000F7BEF7BEF7BEF7BEF7BEF7BEF7BEF7BECF
:10395000F7BEFFDFFFDFFFFFFFDFFFDFFFBFF7BEC9
:10396000F7BEF7BEF7BEF7DEF7FFEFBEF7DEF7FFF5
:10397000EFDEEFBEF7FFEFFFDFDF8E1C45782DD9BE
:10398000261B2E1D3DDD3D9D459D45FD2DFB2E1924
:1039900035B7767ADFFFEFBFF7BFF7BEF7BEF7BEEA
:1039A000F7BEF7BEF7BEF7BEF7BEF7BEF7BEF7BE6F
:1039B000F7BEF7BEF7BEF7BEF7BEF7BEF7BEF7BE5F
:1039C000F7BEF7BEF7BEF7BEF7BEFFDFFFDFFFFFB4
:1039D000FFDFFFDFFFBFF7BEF7BEF7BEF7BEF7DEC4
:1039E000F7DFF7BEF7FFF7FFEFBEEFBEF7FFEFFF22
:1039F000AEFE5D9A3579363C2E1C2DDC45DE459EAB
:103A0000459D3DFC25FA2E5A35B855B8BF7FF7FFC6
:103A1000F7BFF7BEF7BEF7BEF7BEF7BEF7BEF7BEFD
:103A2000F7BEF7BEF7BEF7BEF7BEF7BEF7BEF7BEEE
:103A3000F7BEF7BEF7BEF7BEF7BEF7BEF7BEF7BEDE
:103A4000F7BEFFDFFFDFFFFFFFDFFFDFFFBFF7BED8
:103A5000F7BEF7BEF7BEF7DEF7BEEFBEF7FFF7FF24
:103A6000EFBEEFDEF7FFDFDF75FA3D592DBA363DC9
:103A70002DFD2DBC3DBE45BE3DBD35DB25FA2E5B83
:103A800035F945789E9EEFFFEFDFF7BEF7BEF7BE34
:103A9000F7BEF7BEF7BEF7BEF7BEF7BEF7BEF7BE7E
:103AA000F7BEF7BEF7BEF7BEF7BEF7BEF7BEF7BE6E
:103AB000F7BEF7BEF7BEF7BEF7BEFFDFFFDFFFFFC3
:103AC000FFDFFFDFFFBFF7BEF7BEF7BEF7BEF7DED3
:103AD000F7DEEFDEEFDEEFDEEFDEF7FFEFBEBF1C5F
:103AE0005579357A2DDB361D35DD359D3D9E3D9D65
:103AF00035BC35FC261B261A3E1A45786D9AC73F01
:103B0000EFDFF7BEF7BEF7BEF7BEF7BEF7BEF7BEF4
:103B1000F7BEF7BEF7BEF7BEF7BEF7BEF7BEF7BEFD
:103B2000F7BEF7BEF7BEF7BEF7BEF7BEF7BEF7BEED
:103B3000F7BEFFDFFFDFFFFFFFDFFFDFFFBFF7BFE6
:103B4000F7BEF7BEFFBEFFBEFFFFF7DEEFDEEFBE44
:103B5000F7DFF7FFD79E8E7A45792DBB2DDC2DDC64
:103B600035DD3DBE3DBD3D9D35DD361C363C25D9A0
:103B70003E1B459944D78E7DDFFFEFDFF7DFF7BFB0
:103B8000FFBEFFBEFFBEFFBEF7BEF7BFF7BFF7BF6A
:103B9000F7BFF7BEF7BEF7BEF7BEF7BEF7BEF7BE7C
:103BA000F7BEF7BEF7BEF7BEF7BEFFDFFFDFFFFFD2
:103BB000FFBEFFBEFFDFF7DFEFDFEFBFFF9EFF7E41
:103BC000FF9DFFBDF7FEE79DFFFFEFFFAF7E55B8FE
:103BD0003DDA35DC35DC35DC35DD35DD3DDD3DDC44
:103BE00035DC35FC35FC35FC35DC3DDB3DBB4D9A29
:103BF000A73EE7FFEFFFE75DFFDFFFBEF71CFFBE5D
:103C0000FFBFF7BFEFDFEFDFEFDFF7BEFFBEFFBEA7
:103C1000F7BEF7BEF7BEF7BEF7BEF7BEF7BEF7BEFC
:103C2000F7BEFFDFFFDFFFFFFFBEFFBEFFDFEFDFFF
:103C3000E7DFEFBFFF7FFF7EFF9DFFBDF7DDEFDE1C
:103C4000F7BFE7FF86DC45B93DDB35DC35DC35DC2D
:103C500035DC35DC35DC35DC35DC35DC35DC35DCDC
:103C600035DC35DC35DC3DBB6E1ABF9FE7FFEFDF8F
:103C7000FF7EFFBEFF9EFF7EFFBFF7BFEFDFEFDFE0
:103C8000EFDFF7BEFFBEFFBDFFBEF7BEF7BEF7BE5C
:103C9000F7BEF7BEF7BEF7BEF7BEFFDFFFDFFFFFE1
:103CA000FFBEFFBEFFDFEFDFE7DFEFBFFF7FFF7E7F
:103CB000FF9DFFDDEFDDEFFFEFBFD7DF65D93DB93A
:103CC0003DDB35DC35DC35DC35DC35DC35DC35DC65
:103CD00035DC35DC35DC35DC35DC35DC35DC3DBB75
:103CE0004537865BCFFFEFFFF79EFF7EFFDFFF7D4F
:103CF000FFBEF7BFEFDFEFDFEFDFF7BEFFBEFFBEB8
:103D0000F7BEF7BEF7BEF7BEF7BEF7BEF7BEF7BE0B
:103D1000F7BEFFDFFFDFFFFFFFBEFFBEFFDFF7DF06
:103D2000EFDFEFBFFF7FFF7EFF9EF7BDEFDEEFFF10
:103D3000EFDFBF5F4D373DB93DDB35DC35DC35DCD2
:103D400035DC35DC35DC35DC35DC35DC35DC35DCEB
:103D500035DC35DC35DC3DDB4559555896BCDFFF9D
:103D6000F7FFF79EFF9EFFBEFFBEF7BFEFDFEFDF5F
:103D7000F7DFF7BEFFBEFFBEF7BEF7BEF7BEF7BE6A
:103D8000F7BEF7BEF7BEF7BEF7BEFFDFFFDFFFFFF0
:103D9000FFBEFFBEFFDFF7DFEFDFEFBFFF9FFF7E5E
:103DA000FF9EF79DF7FFE7DFE7FF9E7C45373DDA93
:103DB00035DC35DC35DC35DC35DC35DC35DC35DC7B
:103DC00035DC35DC35DC35DC35DC35DC35DC3DDC63
:103DD00045BB45595D99A6DDE7FFF7FFF79EFFBE9E
:103DE000F7BEF7BEF7DEF7DFF7DEF7BEFFBEFFBEBA
:103DF000F7BEF7BEF7BEF7BEF7BEF7BEF7BEF7BE1B
:103E0000F7BEFFDFFFDFFFFFFFBEFFBEFFDFF7DF15
:103E1000EFDFEFBFFF9FFF9EFF9EF79EF7FFE7FFDD
:103E2000D7DF75DA45793DDB35DC35DC35DC35DC73
:103E300035DC35DC35DC35DC35DC35DC35DC35DCFA
:103E400035DC35DC35DC35DC3DDC45DB453865997A
:103E5000B75FEFFFF7FFF7BEF7BEF7BEF7DEF7DE9F
:103E6000F7BEF7BEF7BEF7BEF7BEF7BEF7BEF7BEAA
:103E7000F7BEF7BEF7BEF7BEF7BEFFDFFFDFFFFFFF
:103E8000FFDEFFBEFFDFF7BFEFDFEFBFFF9FFF9F4C
:103E9000FF7DFFDFEFDFE7FFB75F5D58459A35DB5A
:103EA00035DC35DC35DC35DC35DC35DC35DC35DC8A
:103EB00035DC35DC35DC35DC35DC35DC35DC35FD59
:103EC0002DFD35DC3D9B4D587DFAC79FEFFFE7BECA
:103ED000F7DEF7DEF7BEF7BEF7BEF7BEF7BEF7BEFA
:103EE000F7BEF7BEF7BEF7BEF7BEF7BEF7BEF7BE2A
:103EF000F7BEFFDFFFDFFFFFFFDEFFBEFFDFF7BF25
:103F0000EFBFF7BFF7BFFFBFF77DFFFFE77EE7FF1C
:103F10009EDD4D183DBB35DC35DC35DC35DC35DC74
:103F200035DC35DC35DC35DC35DC35DC35DC35DC09
:103F300035DC35DC35DC35FD363E259C3DFD4DDB85
:103F40004D37969CDFFFE7DFEFDEF7DEF7BDF7BD0D
:103F5000F7BEF7BEF7BFF7BFF7BEF7BEF7BEF7BEB7
:103F6000F7BEF7BEF7BEF7BEF7BEFFDFFFDFFFFF0E
:103F7000FFDEFFDEFFDFF7BFF7BFF7BFF7BFF7BF1B
:103F8000FFBEEF7EEFFFE7FF7E3B4579359A35FDBB
:103F900035DC35DC35DC35DC35DC35DC35DC35DC99
:103FA00035DC35DC35DC35DC35DC35DC35DC35DD88
:103FB00025DD25FE35FD45FC45596599B73EE7FFF2
:103FC000EFDFF7BEF7BDFF9DFFBEFFDEF7DFF7BFF8
:103FD000F7BEF7BEF7BEF7BEF7BEF7BEF7BEF7BE39
:103FE000F7BEFFDFFFDFFFFFFFDEFFDEFFDFF7BF14
:103FF000F7BFF7BFF7DFF7DEFFBEF79EF7FFDFFF84
:10400000761A3D9935BB35FD35DC35DC35DC35DCE4
:1040100035DC35DC35DC35DC35DC35DC35DC35DC18
:1040200035DC35DC35DC35DD25FE25FE2DFE35DCC9
:104030003D7955798E7BCFDFE7FFEFDEF7BDFFBD22
:10404000FFBEFFDEF7DFF7BEF7BEF7BEF7BEF7BE77
:10405000F7BEF7BEF7BEF7BEF7BEFFDFFFDFFFFF1D
:10406000FFDEFFDEF7DFF7BFF7BFF7BFEFDFF7DEFB
:10407000FFBEFF9EF7FFD7DF65F93DB935DB35FDA4
:1040800035DC35DC35DC35DC35DC35DC35DC35DCA8
:1040900035DC35DC35DC35DC35DC35DC35DC35DD97
:1040A0002DFE25DD361E2DBC3D9A45796598B75EFF
:1040B000E7FFEFDFF7BEFFBDFFBEF7DEF7DEEFBEC7
:1040C000F7BEF7BEF7BEF7BEF7BEF7BEF7BEF7BE48
:1040D000F7BEFFDFFFDFFFFFFFDEFFDEF7DFF7BF2B
:1040E000F7BFF7BFEFDFF7DEFFBEFFBFF7DFCFBFE2
:1040F00055D835B935FC35DD35DC35DC35DC35DC1E
:1041000035DC35DC35DC35DC35DC35DC35DC35DC27
:1041100035DC35DC35DC35DC35FD25BC363E2DBCEB
:104120003DFC45BA4D17A6FEDFFFEFDFF7BEFFBE31
:10413000FFBEF7BEEFDEEFBEF7BEF7BEF7BEF7BEBF
:10414000F7BEF7BEF7BEF7BEF7BEFFDFFFDFFFFF2C
:10415000FFDEFFDEF7DFF7BFF79FF7BFEFDEEFFE13
:10416000FFBEFFBEFFDFCF9F55D835D93DFC35DD03
:1041700035DC35DC35DC35DC35DC35DC35DC35DCB7
:1041800035DC35DC35DC35DC35DC35DC35DC35DCA7
:1041900035DD2D9B3E1E2DBC3E1D45DB3CF78E9D27
:1041A000DFFFEFFFF7BFFFBEFFBEF7BEEFDEEFDEC4
:1041B000F7BEF7BEF7BEF7BEF7BEF7BEF7BEF7BE57
:1041C000F7BEFFDFFFDFFFFFFFDEFFDEF7DFF7BF3A
:1041D000FF9FF7BFEFFEEFFEFFBEFF9EFFDFCFBFEB
:1041E00055F835D935DC35DC35DC35DC35DC35DC0E
:1041F00035DC35DC35DC35DC35DC35DC35DC35DC37
:1042000035DC35DC35DC3DDC3DDC359B3DFD35DC2E
:1042100035FC3DDB3D38761AD7FFE7FFF7DFFFBE01
:10422000FFBEF7BEEFDEEFDEF7BEF7BEF7BEF7BEAE
:10423000F7BEF7BEF7BEF7BEF7BEFFDFFFDFFFFF3B
:10424000FFFEFFDEF7DFF7BFFF9FF7BFEFFEEFFEDA
:10425000FFBDFF9EFFDFD7DF56192DD935DB35BCFB
:1042600035DC35DC35DC35DC35DC35DC35DC35DCC6
:1042700035DC35DC35DC35DC35DC35DC35DC3DDCAE
:1042800045BB3DBB3DDC35DC35FC3DDB459A5D99EE
:10429000CFFFE7FFF7DFFFBEFFBEF7BEEFDEF7FFA2
:1042A000F7BEF7BEF7BEF7BEF7BEF7BEF7BEF7BE66
:1042B000F7BEFFDFFFDFFFFFFFFEFFDEF7DFF7BF29
:1042C000FF9FF7BFEFDFF7DEFFBDFF7DFFDFDFFF03
:1042D000661935B935BB35DC3DDC3DDC3DDC3DDC0C
:1042E00035DC35DC35DC35DC35DC35DC35DC35DC46
:1042F00035DC35DC35DC3DDC459B45BB3DBB3DFD60
:1043000035DC3DDC561C5D99CFFFE7FFF7DFFFBED4
:10431000FFBEF7BEF7DEF7FFF7BEF7BEF7BEF7BE8C
:10432000F7BEF7BEF7BEF7BEF7BEFFDFFFDFFFFF4A
:10433000FFFEFFDEF7DFF7BFF79FF79FFFBFFF9E90
:10434000FF9EFF9DF7BFD7DF869B3D7835DB35DCD1
:104350003DBB3DBB3DBB3DBB35BB35BB35FC3E1C12
:1043600035FC35FC35FC35FC35DC35DC35DC3DBC5D
:104370003D9B459B45DD3DBD3DDD3D9B455975DB89
:10438000D7FFE7FFF7BFFFBEFFBEFFBEF7BEF7BF19
:10439000F7BEF7BEF7BEF7BEF7BEF7BEF7BEF7BE75
:1043A000F7BEFFDFFFDFFFFFFFFDFFDEF7DFF7BF39
:1043B000F7BFF79FFF9FFF9FFFBEFF9DF7BEE7FF81
:1043C0009EFD4D58359A3DFC45FC5E7E5E9E4E3C02
:1043D0003DBB3DDB35FB35DB35FC35FC35FC35FCC9
:1043E00035DC35DC35DC3DDC3DBC3D9C3DDD359CC4
:1043F0003DDD45DC45597E1BD7FFE7FFF7BFFFBE1C
:10440000FF9EFFBEF7BEF7BFF7BEF7BEF7BEF7BE13
:10441000F7BEF7BEF7BEF7BEF7BEFFDFFFDFFFFF59
:10442000FFFEFFDEF7DFF7BFF7BFF79FFF9FFF9E9F
:10443000FFBEFF9DEF9DEFFFBFBF5DB9355945FC46
:10444000563D771F775F5E9E3DDB3DDB3DFC35BB18
:1044500035DC35FC35DC35DC35DC35DC35DC35DCB4
:104460003DDC35BC3E1E2D9B3DFC4E1C45388E9DD3
:10447000D7FFE7FFF7BEFFBEFF9EFF9EF7BFF7BF68
:10448000F7BEF7BEF7BEF7BEF7BEF7BEF7BEF7BE84
:10449000F7BEFFDFFFDFFFFFFFDEFFDEF7DFF7BF67
:1044A000F7BFF7BFFFBFFF9EFF9DFFBDEF7DEFFF93
:1044B000D7FF865B4D59457955FC6EFF7F7F66DFE0
:1044C0004E1C3DBB3DDB3DDC35DC35DC35DC35DC15
:1044D00035DC35DC35DC35DC361D25BC363E25BB10
:1044E000361C45DA4517A75ED7FFEFDFF7BEFF9E04
:1044F000FF9EFF9EF7BFF7BFF7BFF7BEF7BEF7BE41
:10450000F7BEF7BEF7BEF7BEF7BEFFDFFFDFFFFF68
:10451000FFDEFFDEF7DFF7BFF7BFF7BFF7BFFFBE76
:10452000F79DFFFEEF9DEFFFE7FFAF3E6DDA44F72B
:104530004599565C6F1F773F5EBF45FC3DBB3DDC38
:104540003DDC3DDC35DC35DC35DC35DC35DC2DFCBB
:10455000365E1DBB2E3D2E1C361B35784D57BFFFDA
:10456000DFFFEFDFF7BEFF9DFF9EFF9EF7BFF7BFA8
:10457000F7BFF7BEF7BEF7BEF7BEF7BEF7BEF7BE92
:10458000F7BEFFDFFFDFFFFFFFDEFFDEFFDFF7BF6E
:10459000EFBFF7BFF7BFF7DEF7BDFFFEF7BDEFDEFA
:1045A000EFFFCFBF969C551745374DB9669D7F5F8E
:1045B000775F5E7E45DC3DBB3DBC3DDC3DDC35DCF4
:1045C00035DC35DC35DC2DFC2E3E1DDC2E1C3E3C66
:1045D00035DA3D577639CFFFE7FFEFDEFFBDFF9DB0
:1045E000FF9EFFBEF7BFF7BFF7BFF7BEF7BEF7BE30
:1045F000F7BEF7BEF7BEF7BEF7BEFFDFFFDFFFFF78
:10460000FFDEFFBEFFDFF7BFEFBFEFBFF7DEF7DE76
:10461000F7DDFFFEF7BDEFDEEFFFE7FFCF9F8E3A3E
:1046200055574D98561A6EBE7F3F6EFF565E45DC5D
:104630003DBC3DBC3DDD35DC35DC35DC35DC35DC19
:104640002DFD2DFC2DFB461B3D9855B7A75DD7FFD3
:10465000E7FEF7DDFFBDFF9DFF9EFFBEF7BFF7BF83
:10466000F7BFF7BEF7BEF7BEF7BEF7BEF7BEF7BEA1
:10467000F7BEFFDFFFDFFFFFFFDFFFBEFFBFF7BFBC
:10468000EFBFEFDFF7DEF7DEF7DDF7DDEF9CF7DEFC
:10469000EFDFF7FFEFFFBF3E6D9755984D7755DA87
:1046A0006EBE7F3F6EFF565E3DBC3DBC3DBD3DDCFA
:1046B00035DC35DC35DC35DC2D9B3DFD3DBB4DDA95
:1046C000453675F8CFFFDFFFEFDEF7BDFFBDFFBD5D
:1046D000FFBEF7BEF7DFEFDFF7BFF7BEF7BEF7BEEF
:1046E000F7BEF7BEF7BEF7BEF7BEFFDFFFDFFFFF87
:1046F000FFDFFFDFFFDFF7BFF7DFF7DFEFDEF7DE1C
:10470000F7DEF7DDF7DEF7DEF7DEF7DFF7DFE7FFEF
:10471000B79F7E7B551644F655995E1C4DDC3D9B3C
:104720003DDC3DBC3DBC3DDD3DFD3DDC3DDC3DDCDF
:1047300045DC459B3CF74D17865BBF9EDFFFEFFED8
:10474000F7BEFFBDFF9DFFBDF7BEF7BEEFDFEFDF9A
:10475000F7BFF7BEF7BEF7BEF7BEF7BEF7BEF7BEB0
:10476000FFDFFFDFFFFFFFFFFFDFFFDFFFDFFFDF19
:10477000F7DFF7DFF7DEF7FEF7FEF7FEFFDEFFDE1F
:10478000FFDEFFDFFFDFEFFFDFFFBFBF8E9B65B800
:104790004D3745183D7A45BC3DDC35BC35BC35BC94
:1047A00035BC359B359B459B3CF9557A6DDA8E7B44
:1047B000BF7FDFFFEFFFF7FEFFDEFFDEFFBEFFDEA6
:1047C000FFDFF7FFF7FFF7FFF7DFFFDFFFDFFFDFB9
:1047D000FFDFFFDFFFDFFFDFFFDFFFDFFFFFFFFFA9
:1047E000FFFFFFFFFFFFFFDFFFFFFFFFFFFEF7FE03
:1047F000F7FEFFFEFFFEFFFEFFDEFFDFFFDFF7FF3E
:10480000EFFFDFFFCFFFAF7F869C5DDA4DDB4E1CF5
:10481000461D3DFD3DFD3DFD45FC45FC4DFC5E1C42
:1048200065BB969EB77FCFDFE7FFF7FFF7FFFFBEC1
:10483000FFDFFFDFFFDFFFDFFFFFF7FFF7FFF7FF20
:10484000FFFFFFFFFFFFFFFFFFFFFFFFFFFFFFFF78
:10485000FFDFFFDFFFFFFFFFFFFFFFFFFFFFFFDFC8
:10486000FFDFFFFFFFFEFFFEFFFFFFFFFFFFFFFF7A
:10487000FFFFFFDFFFDFFFFFE7BFDFFFDFFFD7FF48
:10488000BFFF977F6EDF567E4E5E463E463E465EDB
:104890004E5E567E66BF7EFFA77FCFFFDFFFE7FF3E
:1048A000EFFFF7FFF7BEFFDEFFDEFFDFFFDFFFDF1B
:1048B000FFFFF7FFF7FFF7FFFFFFFFDFFFDFFFDF80
:1048C000FFDFFFDFFFDFFFDFFFDFFFDFFFFFFFFFB8
:1048D000FFFFFFFFFFFFFFFFFFFFFFFFFFFFFFFFE8
:1048E000FFFFFFFFFFFFFFFFFFFFFFFFFFFFFFFFD8
:1048F000FFFEFFFEFFFFFFFFFFFFFFFFFFFFFFFFCA
:10490000FFFFF79DFFFEFFDDFFFFF7BDFFFFF79DF8
:10491000FFFFE73BFFFFEF9CFFFEFFFEF7BDFFFF42
:10492000FFFFFFFFFFFFFFFFFFFFFFFFFFFEFFFE99
:10493000FFFFFFFFFFFFFFFFFFFFFFFFFFFFFFFF87
:10494000FFFFFFFFFFFFFFFFFFFFFFFFFFFFFFFF77
:10495000FFFFFFFFFFFFFFFFFFFFFFFFFFFFFFFF67
:10496000FFFFFFFFFFFFFFFFFFFFFFFFFFFFFFFF57
:10497000FFFEFFFEFFFFFFFFFFFFFFFFFFFFFFFF49
:10498000FFDEFFFFFFFEF7BDFFFEFFFFEF5CFFFF57
:10499000FFFFFFFFF7DEFFFFFFFEFFFEFFFFFFFF52
:1049A000FFFFFFFFFFFFFFFFFFFFFFFFFFFFFFFE18
:1049B000FFFFFFFFFFFFFFFFFFFFFFFFFFFFFFFF07
:1049C000FFFFFFFFFFFFFFFFFFFFFFFFFFFFFFFFF7
:1049D000FFFFFFFFFFFFFFFFFFFFFFFFFFFFFFFFE7
:1049E000FFFFFFFFFFFFFFFFFFFFFFFFFFFFFFFFD7
:1049F000FFFFFFFFFFFFFFFFFFFFFFFFFFFFFFFFC7
:104A0000F79DFFFFFFFFFFDEFFFFFFFFFFFFFFFF41
:104A1000FFFFFFFFFFFFFFFFF7BDF79DFFFEFFFF5B
:104A2000FFFFFFFFFFFFFFFFFFFFFFFFFFFFFFFF96
:104A3000FFFFFFFFFFFFFFFFFFFFFFFFFFFFFFFF86
:104A4000FFFFFFFFFFFFFFFFFFFFFFFFFFFFFFFF76
:104A5000FFFFFFFFFFFFFFFFFFFFFFFFFFFFFFFF66
:104A6000FFFFFFFFFFFFFFFFFFFFFFFFFFFFFFFF56
:104A7000FFFFFFFFFFFFFFFFFFFFFFFFFFFFFFFF46
:104A8000FFFEFFFFF7BDFFFFFFFFFFDFFFFFA514E6
:104A9000738E8C51EF7EFFFFFFFEFFFFFFFFFFFFD6
:104AA000FFFFFFFFFFFFFFFFFFFFFFFFFFFFFFFF16
:104AB000FFFFFFFFFFFFFFFFFFFFFFFFFFFFFFFF06
:104AC000FFFFFFFFFFFFFFFFFFFFFFFFFFFFFFFFF6
:104AD000FFFFFFFFFFFFFFFFFFFFFFFFFFFFFFFFE6
:104AE000FFFFFFFFFFFFFFFFFFFFFFFFFFFFFFFFD6
:104AF000FFFFFFFFFFFFFFFFFFFFFFFFFFFFFFFEC7
:104B0000FFFEFFFEF79DFFFFFFDFFFDFAD763167A2
:104B1000082210838C72FFDFFFDFFFFFFFFFFFFF24
:104B2000FFFFFFFFFFFFFFFFFFFFFFFFFFFFFFFF95
:104B3000FFFFFFFFFFFFFFFFFFFFFFFFFFFFFFFF85
:104B4000FFFFFFFFFFFFFFFFFFFFFFFFFFFFFFFF75
:104B5000FFFFFFFFFFFFFFFFFFFFFFFFFFFFFFFF65
:104B6000FFFFFFFFFFFFFFFFFFFFFFFFFFFFFFFF55
:104B7000FFFFFFFFFFFFFFFFFFFFFFFEFFFEFFFE48
:104B8000FFFEFFFFFFDEFFFFFFFFF7BF31A7084279
:104B9000210510842946E71DF79FF7BEFFDEFFFFC2
:104BA000FFFFFFFFFFFFFFFFFFFFFFFFFFFFFFFF15
:104BB000FFFFFFFFFFFFFFFFFFFFFFFFFFFFFFFF05
:104BC000FFFFFFFFFFFFFFFFFFFFFFFFFFFFFFFFF5
:104BD000FFFFFFFFFFFFFFFFFFFFFFFFFFFFFFFFE5
:104BE000FFFFFFFFFFFFFFFFFFFFFFFFFFFFFFFFD5
:104BF000FFFFFFFFFFFFFFFFFFFEFFFEFFFEFFFEC9
:104C0000FFDEFFFFFFFFFFFFFFBF9CF4084220E431
:104C100020E420E510629CD4FFFFFFFFFFFFFFFFB1
:104C2000FFFEFFFEFFFEFFFFFFFFFFFFFFFFFFFF97
:104C3000FFFFFFFFFFFFFFFFFFFFFFFFFFFFFFFF84
:104C4000FFFFFFFFFFFFFFFFFFFFFFFFFFFFFFFF74
:104C5000FFFFFFFFFFFFFFFFFFFFFFFFFFFFFFFF64
:104C6000FFFFFFFFFFFFFFFFFFFFFFFFFFFFFFFF54
:104C7000FFFFFFFFFFFFFFFFFFFEFFFEFFFEFFFE48
:104C8000FFFEFFDEFFDFFFFFEF3D210420E42925CB
:104C90002104290420C420C4E6FCFFDFFFDFFFFF5E
:104CA000FFFEFFFEFFFEFFFFFFFFFFFFFFFFFFFF17
:104CB000FFFFFFFFFFFFFFFFFFFFFFFFFFFFFFFF04
:104CC000FFFFFFFFFFFFFFFFFFFFFFFFFFFFFFFFF4
:104CD000FFFFFFFFFFFFFFFFFFFFFFFFFFFFFFFFE4
:104CE000FFFFFFFFFFFFFFFFFFFFFFFFFFFFFFFFD4
:104CF000FFFFFFFFFFFFFFFFFFFEFFFEFFFEFFFEC8
:104D0000F7BDFFFFFFFFFFFF73AE084018E3294424
:104D1000294420C229240821736EFFFFFFDFF7DE3C
:104D2000FFFFF7FEFFFEFFFFFFFFFFFFF75EFFFF46
:104D3000FFFFFFFFFFFFFFFFFFFFFFFFFFFFFFFF83
:104D4000FFFFFFFFFFFFFFFFFFFFFFFFFFFFFFFF73
:104D5000FFFFFFFFFFFFFFFFFFFFFFFFFFFFFFFF63
:104D6000FFFFFFFFFFFFFFFFFFFFFFFFFFFFFFFF53
:104D7000FFFFFFFFFFFFFFFFFFFEFFFDFFFEFFFE48
:104D8000FFFFFFDFF79ED67A292418C221232122B4
:104D900018A020C03163292420E3BDD7FFFFFFFF07
:104DA000FFFFEFBDFFFDF7BDFFDEFFFFFFDFFFFFF2
:104DB000FFFFFFFFFFFFFFFFFFFFFFFFFFFFFFFF03
:104DC000FFFFFFFFFFFFFFFFFFFFFFFFFFFFFFFFF3
:104DD000FFFFFFFFFFFFFFFFFFFFFFFFFFFFFFFFE3
:104DE000FFFFFFFFFFFFFFFFFFFFFFFFFFFFFFFFD3
:104DF000FFDFFFDFFFFFFFFEFFFEFFFDFFDDFFDE4A
:104E0000FFFFFFFFFFBF630C108118E1214121006C
:104E10006B4820E0292129221061528AFFDFF79E8A
:104E2000FFFFF7DDFFFEFFFDFFDEFFFFFFFFFFBF20
:104E3000FFFFFFFFFFFFFFFFFFFFFFFFFFFFFFFF82
:104E4000FFFFFFFFFFFFFFFFFFFFFFFFFFFFFFFF72
:104E5000FFFFFFFFFFFFFFFFFFFFFFFFFFFFFFFF62
:104E6000FFFFFFFFFFFFFFFFFFFFFFFFFFFFFFFF52
:104E7000FFDFFFFFFFFFFFFEFFFEFFFDFFDEFFBEC8
:104E8000F7BFFFFFC61910622143212110A052A4D1
:104E9000EF345AA218A020E0294410A2AD55FFFF1C
:104EA000FFFFF7DEFFFEFFFEFFFEFFDFFFDFFFDF9E
:104EB000FFFFFFFFFFFFFFFFFFFFFFFFFFFFFFFF02
:104EC000FFFFFFFFFFFFFFFFFFFFFFFFFFFFFFFFF2
:104ED000FFFFFFFFFFFFFFFFFFFFFFFFFFFFFFFFE2
:104EE000FFFFFFFFFFFFFFFFFFFFFFFFFFFFFFFFD2
:104EF000FFDFFFFFFFFFFFFEFFFEFFFDFFDEFFBE48
:104F0000FFBFEF5E4A6A10812122212010C0B5AE9A
:104F1000FFF5BD8C29202900210118C339C8FFDF06
:104F2000FFFFF7DEF7FEFFFEFFFFF7BEFFFFFFFF0D
:104F3000FFFFFFFFFFFFFFFFFFFFFFFFFFFFFFFF81
:104F4000FFFFFFFFFFFFFFFFFFFFFFFFFFFFFFFF71
:104F5000FFFFFFFFFFFFFFFFFFFFFFFFFFFFFFFF61
:104F6000FFFFFFFFFFFFFFFFFFFFFFFFFFFFFFFF51
:104F7000FFFFFFFFFFFEFFFEFFFEFFFEFFDEFFDF86
:104F8000FFFF949310622124212110A05B24EF9352
:104F9000E70FF7717BA518A020C02944084194B3FE
:104FA000FFFFFFFFF7DDFFFDFFFEFFDEFFDFFFFF7F
:104FB000FFFFFFFFFFFFFFFFFFFFFFFFFFFFFFFF01
:104FC000FFFFFFFFFFFFFFFFFFFFFFFFFFFFFFFFF1
:104FD000FFFFFFFFFFFFFFFFFFFFFFFFFFFFFFFFE1
:104FE000FFFFFFFFFFFFFFFFFFFFFFFFFFFFFFFFD1
:104FF000FFFFFFFFFFFEFFFEFFFEFFFEFFFFFFFFC5
:10500000E71E39C918C4210321212160BE4FEF9248
:10501000E70EF790CE4E39802100210318C32146B8
:10502000D6BBFFFFFFFEF7DDFFFEFFFEFFDFFFFF4A
:10503000FFFFFFFFFFFFFFFFFFFFFFFFFFFFFFFF80
:10504000FFFFFFFFFFFFFFFFFFFFFFFFFFFFFFFF70
:10505000FFFFFFFFFFFFFFFFFFFFFFFFFFFFFFFF60
:10506000FFFFFFFFFFFFFFFFFFFFFFFFFFFFFFFF50
:10507000FFFFFFFFFFFFFFFFFFFEFFFEFFFFFFFF42
:105080008410188321052103108073A6F7F3DF0C29
:10509000EF4CEF4DEF508C48108018A12965086245
:1050A0008C72F7BEFFFFF7BDFFFEFFDEFFDEFFFFE6
:1050B000FFFFFFFFFFFFFFFFFFFFFFFFFFFFFFFF00
:1050C000FFFFFFFFFFFFFFFFFFFFFFFFFFFFFFFFF0
:1050D000FFFFFFFFFFFFFFFFFFFFFFFFFFFFFFFFE0
:1050E000FFFFFFFFFFFFFFFFFFFFFFFFFFFFFFFFD0
:1050F000FFFEFFFFFFDFFFDFFFBFFFFFFFFDDEF86B
:105100002922210320E420C23161DED0F7AEE72856
:10511000EF49EF6BEF4EDECF420120E02102210488
:1051200020E4D6BAFFFFFFFEFFFEFFFEF79DFFFF64
:10513000FFFFFFFFFFFFFFFFFFFFFFFFFFFFFFFF7F
:10514000FFFFFFFFFFFFFFFFFFFFFFFFFFFFFFFF6F
:10515000FFFFFFFFFFFFFFFFFFFFFFFFFFFFFFFF5F
:10516000FFFFFFFFFFFFFFFFFFFFFFFFFFFFFFFF4F
:10517000FFBDFFFFFFBFFFDFFFFFFFDFFFDC7BECBB
:1051800021211060290318808C2AEF30EF6AEF6725
:10519000EF27F7ABEF4CE70FA4EA18A0210120C2DC
:1051A00010826B4DFFFFF7BEF7BDFFFEF7BDFFFEA0
:1051B000FFFFFFFFFFFFFFFFFFFFFFFFFFFFFFFFFF
:1051C000FFFFFFFFFFFFFFFFFFFFFFFFFFFFFFFFEF
:1051D000FFFFFFFFFFFFFFFFFFFFFFFFFFFFFFFFDF
:1051E000FFFFFFFFFFFFFFFFFFFFFFFFFFFFFFFFCF
:1051F000FFBEFFFFFFBFFFDFFFFFFFFFC61621025D
:10520000292218A020C04A02E6F2EF4FEF4AEF69C8
:10521000EF48F76AEF2CEF4EEF524A0118C0210217
:1052200018C21082C638FFFFF7DEFFFEFFFEFFFE4A
:10523000FFFFFFFFFFFFFFFFFFFFFFFFFFFFFFFF7E
:10524000FFFFFFFFFFFFFFFFFFFFFFFFFFFFFFFF6E
:10525000FFFFFFFFFFFFFFFFFFFFFFFFFFFFFFFF5E
:10526000FFFFFFFFFFFFFFFFFFFFFFFFFFFFFFFF4E
:10527000FFFFFFFFFFDFFFFFFFDEFFDF62EC082025
:105280002923294220E0A50AFFB1EF2CF76CEF2972
:10529000F76AEF09EF2BEF4EF771AD4B21002100BC
:1052A0002964106152ABFFDFFFFFF79DFFFEFFFE99
:1052B000FFFFFFFFFFFFFFFFFFFFFFFFFFFFFFFFFE
:1052C000FFFFFFFFFFFFFFFFFFFFFFFFFFFFFFFFEE
:1052D000FFFFFFFFFFFFFFFFFFFFFFFFFFFFFFFFDE
:1052E000FFFFFFFFFFFFFFFFFFFFFFFFFFFFFFFFCE
:1052F000FFFFFFDFFFFFFFFEFFFFB57520E518A4EE
:1053000028E320C05AC1F770EF2CE72AF74CEF0AC8
:10531000EF2AEF29EF2AEF2CE70DEF71632318C076
:10532000292221031062AD56FFFFFFDFFFFEFFFDC4
:10533000FFFFFFFFFFFFFFFFFFFFFFFFFFFFFFFF7D
:10534000FFFFFFFFFFFFFFFFFFFFFFFFFFFFFFFF6D
:10535000FFFFFFFFFFFFFFFFFFFFFFFFFFFFFFFF5D
:10536000FFFFFFFFFFFFFFFFFFFFFFFFFFFFFFFF4D
:10537000FFDFFFDFFFFEFFFEF79D420818A520E5D7
:1053800020A118A0BDCBFFEFDF08F76BE6EBF74CD1
:10539000EEEAFF6BEF0AEF2BEF2CF78FC5EC29201D
:1053A00018C020E218C34209DEDCFFFFFFFFF7BD93
:1053B000FFFFFFFFFFFFFFFFFFFFFFFFFFFFFFFFFD
:1053C000FFFFFFFFFFFFFFFFFFFFFFFFFFFFFFFFED
:1053D000FFFFFFFFFFFFFFFFFFFFFFFFFFFFFFFFDD
:1053E000FFFFFFFFFFFFFFFFFFFFFFFFFFFFFFFFCD
:1053F000F7DFFFFFFFFEF7DD9CF3106228E620C415
:1054000020C16B04F78FEF6BEF48F78AE6CAFF6E97
:10541000F72BF74BEF09F76BEF4BE72CF790738403
:10542000210018C1294510638C32FFFFFFFFF7DD13
:10543000FFFFFFFFFFFFFFFFFFFFFFFFFFFFFFFF7C
:10544000FFFFFFFFFFFFFFFFFFFFFFFFFFFFFFFF6C
:10545000FFFFFFFFFFFFFFFFFFFFFFFFFFFFFFFF5C
:10546000FFFFFFFFFFFFFFFFFFFFFFFFFFFFFFFF4C
:10547000FFFFF7DEFFFEEF7C39E7108320C520C376
:105480003140CE4FF7AEE708F789EF49E6EBFF8EE4
:10549000FF6EEEEAEF0AF78BE6E8EF2AF7AFCE4DA4
:1054A000318020E020E3108339C8DEDBFFFFFFDE20
:1054B000FFFFFFFFFFFFFFFFFFFFFFFFFFFFFFFFFC
:1054C000FFFFFFFFFFFFFFFFFFFFFFFFFFFFFFFFEC
:1054D000FFFFFFFFFFFFFFFFFFFFFFFFFFFFFFFFDC
:1054E000FFFFF7BEF7BEFFFFFFFFFFFFFFFFFFFF5E
:1054F000F7DDF7DEFFFF8410106220C428E320C030
:105500008C29F771EF4CEF6AE708F76AFFAEEEEC13
:10551000F72DEF0CF74BF78BDEE7EF6AE70BFFF2A7
:1055200084072100292218A20862738EFFFFFFFF63
:10553000FFFFFFDEFFDEFFFFFFFFFFDEFFFFFFFFDE
:10554000FFFFFFFFFFFFFFFFFFFFFFFFFFFFFFFF6B
:10555000FFFFFFFFFFFFFFFFFFFFFFFFFFFFFFFF5B
:10556000FFFFFFFFFFFFFFFFFFBEF7BEFFDEFFFFF6
:10557000FFFEFFFEC6582966210420E320C139A1A1
:10558000CE2EFFF1E70AE709FFEDBDA57B806B009A
:105590009422F72EFFADDEA8F78AF78AEF4BE70DCE
:1055A000DED0420020E020E221032124C618FFFFC4
:1055B000FFDEFFFFFFFFFFFFFFDEFFFFFFFFFFDE5E
:1055C000FFFFFFFFFFFFFFFFFFFFFFFFFFFFFFFFEB
:1055D000FFFFFFFFFFFFFFFFFFFFFFFFFFFFFFFFDB
:1055E000FFDEFFFFFFFFFFDEFFDEFFFFFFFFFFFF2E
:1055F000FFFDFFFE6B4D108218C3290220C09CA93D
:10560000FFB2DEEBE70BEF4CF78DB565B545DE6B12
:105610007300A4C5FF6EE6C9FFECDEC7E6E9F78DAF
:10562000FFF2948818802921292310615ACBF7BEF4
:10563000FFDFFFFFFFFFFFDEFFDEFFFFFFFFFFDEFD
:10564000FFFFFFFFFFFFFFFFFFFFFFFFFFFFFFFF6A
:10565000FFFFFFFFFFFFFFFFFFFFFFFFFFFFFFFF5A
:10566000FFDEFFFFFFDEFFDEFFFFFFFFFFDEFFFECF
:10567000FFFEB5D52124210418A220C04A41EF31F4
:10568000F78FE70BFFEEF78EE6ECDEACF76FFFB1BE
:105690009C657360FFF2FF8DE6E9F76AEF6BE6EA5F
:1056A000EF2EEF10526118802922290318A3BDD7CD
:1056B000FFFFFFFFFFDEFFFFFFFFFFDEFFDEFFFF5D
:1056C000FFFFFFFFFFFFFFFFFFFFFFFFFFFFFFFFEA
:1056D000FFFFFFFFFFFFFFFFFFFFFFFFFFFFFFFFDA
:1056E000FFFFFFFFFFDEFFFFFFFFF7BEF79DFFFE9F
:1056F000FFFF528918A220C2292220E0AD2AF770AC
:10570000E70CF78DBDE78C21A506FFB1FFD2FF9214
:10571000BD8B5A80CE2BF74EE70BF78CF76BE70A61
:10572000E70BFFD1C5ED1080292028E21862526AEC
:10573000F77EFFFFFFFFFFDEFFFFFFDEFFBEFFFF85
:10574000FFFFFFFFFFFFFFFFFFFFFFFFFFFFFFFF69
:10575000FFFFFFFFFFFFFFFFFFFFFFFFFFFFFFFF59
:10576000FFFFFFDEFFFFFFFFF79DF79DFFFFFFFF3E
:10577000B59520E318C220E218805AC3EF51F76FA5
:10578000F7ADDECAA503840163009C86BDABCE0DD8
:10579000DEB09C876B20C5E9FFCFDECAEF0AF78C2D
:1057A000EF6CEF2DF7716B23188028E128E410438C
:1057B000AD55F79DFFFFF7BEFFDEFFFFFFFFFFDEEA
:1057C000FFFFFFFFFFFFFFFFFFFFFFFFFFFFFFFFE9
:1057D000FFFFFFFFFFFFFFFFFFFFFFFFFFFFFFFFD9
:1057E000FFFFF7BEFFFFFFFFF79DFFFFFFFFE6FC98
:1057F00039C820E420E229012940BDADF771EF6EE0
:10580000F76DE6EAF7AEFFF19CC65AC06B424A203C
:10581000CE0EFFF694668C44F76FEF2CF76BE6E93B
:10582000F74BE70BE70EDE8F314028E131051043DF
:105830004A49C638FFFFFFDEFFBEFFFFFFFFFFFF45
:10584000FFFFFFFFFFFFFFFFFFFFFFFFFFFFFFFF68
:10585000FFFFFFFFFFFFFFFFFFFFFFFFFFFFFFFF58
:10586000FFFFF7BDFFFFFFFFF79DFFFFF7BE9CD3D4
:1058700008212924292208607BA6FFB3E72FD66BD5
:10588000BDE9E72EF770EF30EF31E6F0FFD4BD8BC6
:105890006B02F773A4E983E4F78FEF2CEF4BF76B00
:1058A000EF2BEF4CE72DFFD27B851860310320C42E
:1058B000082094B1FFDEFFFFFFFFFFBFF7BEFFFF31
:1058C000FFFEFFFEFFFEFFFEFFFFFFFFFFFFFFFFEC
:1058D000FFFEFFFEFFFFFFFFFFFFFFFFFFFFFFFFDA
:1058E000FFFFEF5CFFFEFFFEF7BDFFFEDEDA29855E
:1058F000210310A018E02960D6AFEF91B5EA21206E
:1059000029404A2062C4B54EFFF6EF52EF70CE6CCC
:1059100083E4CE4E4A00C5ECF7AFDEEAF78DEF4DDB
:10592000EF4EEF6EDF0BEF8EDEEF318020C02922CD
:1059300020E12942DEBAFFFFFFBFFFFFFFDFFFFFCD
:10594000FFFEFFFDFFFDFFFDFFFEFFFFFFDFFFDFAF
:10595000FFFEFFFEFFFFFFFFFFFFFFFFFFFFFFFF59
:10596000F7BEFFFFFFFEF7DDFFDDFFFE840F10A196
:105970002123296218E094C8EF91DF0ECE6CA5496F
:105980004A4110801860398162E45AA19485A506C5
:105990006B40F79383E683E5F7AFF7AEE70CE6EEEF
:1059A000E710FFD2D6CAEF8DFFD194671880292166
:1059B000210110807BCEFFFFFFDFFFFFFFFFFFFF16
:1059C000FFFEFFFDFFFDFFFDFFFEFFFFFFDFFFDF2F
:1059D000FFFEFFFEFFFFFFFFFFFFFFFFFFFFFFFFD9
:1059E000F79DFFFFFFDDFFDDFFFFC658294410A232
:1059F00018A2106031A0CE91E771E76FEFB1EF927E
:105A00008C2820C020C010401040188083C5D66E5E
:105A10007361D66DF7535AC0AD46F7AFA5074A205C
:105A20004A20C5ECFFF0E70CE72FE713524518605A
:105A3000290310802103CE58FFFFFFDFFFFFFFFF88
:105A4000FFFEFFFEFFFEFFFEFFFFFFFFFFFFFFFF6A
:105A5000FFFFFFFFFFFFFFFFFFFFFFFFFFFFFFFF56
:105A6000FFFFFFFFF7BDFFFFFFFF632C0861294425
:105A700031441060AD2EFFF6EF71EF90FFD2EF735F
:105A80005AC341C1A4F0B531AD0F8C29BDADFFF4AF
:105A9000AD286B41FFF69487AD47CE4C39A01880F6
:105AA00029005240E72CDEEAEF6EF772AD2E20C0DF
:105AB00020E2292310605ACAFFFEFFFFF79DFFFF77
:105AC000FFFFFFFFFFFFFFFFFFFFFFFFFFFFFFFFE6
:105AD000FFFFFFFFFFFFFFFFFFFFFFFFFFFFFFFFD6
